:020000040800F2
:100000000000032051C003081F2303083B230308FB
:1000100057230308732303088F23030800000000FD
:10002000000000000000000000000000F15B00087C
:10003000AB230308000000006D5E0008C72303081F
:10004000A1C00308A1C00308A1C00308A1C0030800
:10005000A1C00308A1C00308A1C00308A1C00308F0
:10006000A1C00308A1C00308A1C00308A1C00308E0
:10007000A1C00308A1C00308A1C00308A1C00308D0
:10008000A1C00308A1C00308A1C00308A1C00308C0
:10009000A1C00308A1C00308A1C00308A1C00308B0
:1000A000A1C00308A1C00308A1C00308A1C00308A0
:1000B000A1C00308A1C00308A1C00308A1C0030890
:1000C000A1C00308A1C00308A1C00308A1C0030880
:1000D000A1C00308A1C00308A1C00308A1C0030870
:1000E00011760008A1C00308A1C00308A1C003083D
:1000F000A1C00308A1C00308A1C00308A1C0030850
:10010000A1C00308A1C00308A1C00308A1C003083F
:10011000A1C00308A1C00308A1C00308A1C003082F
:10012000A1C00308A1C00308A1C00308A1C003081F
:10013000A1C00308DB230308A1C00308A1C0030872
:10014000A1C00308A1C00308A1C00308A1C00308FF
:10015000A1C00308A1C00308A1C00308A1C00308EF
:10016000A1C00308A1C00308A1C00308A1C00308DF
:10017000A1C00308A1C00308A1C00308000000003B
:10018000A1C00308A1C00308A1C00308A1C00308BF
:10019000A1C00308A1C00308A1C00308A1C00308AF
:0C01A000A1C00308A1C00308A1C003080F
:1001C0000348044B834202D0034B03B118477047E6
:1001D0008C0B00208C0B0020000000000548064915
:1001E0000B1AD90F01EBA301491002D0034B03B145
:1001F000184770478C0B00208C0B0020000000007B
:1002000010B5064C237843B9FFF7DAFF044B13B15E
:100210000448AFF300800123237010BD8C0B002035
:1002200000000000B8C0030808B5044B1BB1044926
:100230000448AFF30080BDE80840CFE700000000AD
:10024000900B0020B8C00308A3F5803A704700BFA8
:10025000154B002B08BF114B9D46FFF7F5FF002102
:100260008B460F461148124A121A32F0A3FB0C4B70
:10027000002B00D098470B4B002B00D09847002054
:10028000002104000D000B4832F0A4FA32F0D4FA39
:100290002000290000F010F832F0A8FA0000080051
:1002A0000000000000000000000000008C0B002097
:1002B000941101200D28030880B500AF08F0EAFA78
:1002C00007F0CAF806F096FB06F0C4FF07F078FBCB
:1002D00003F018FC0023184680BD000080B582B0F2
:1002E00000AF1C2007F0EAFE78607B68002B07D087
:1002F0007B6800221A607B680433184600F008FB14
:100300007B6818460837BD4680BD80B58CB000AF0D
:10031000F860B9607A603B60FB68BB6200237B6277
:100320007B6803F07F43002B0AD04FF0500383F328
:100330001188BFF36F8FBFF34F8FBB6100BFFEE724
:100340007B68002B0AD14FF0500383F31188BFF371
:100350006F8FBFF34F8F7B6100BFFEE704F036FC69
:100360000346002B02D13B68002B01D1012300E0A2
:100370000023002B0AD14FF0500383F31188BFF301
:100380006F8FBFF34F8F3B6100BFFEE703F01EFC92
:10039000BB6A1B683B62B968F86800F08FF93A6A7B
:1003A000BB681A437B6813407A689A420DD13A6A57
:1003B000BB681343FB62BB6A1A687B68DB431A4065
:1003C000BB6A1A6000233B6013E03B68002B0BD034
:1003D000BB6A181D7B6843F0A0633A68194603F0B6
:1003E0009DFF0023FB6204E0BB6A1B68FB620123E4
:1003F0007B6203F0F9FBF8613B68002B2CD0FB69B2
:10040000002B07D1174B4FF080521A60BFF34F8F6C
:10041000BFF36F8F04F0F2FDF862FB6A03F0007324
:10042000002B15D105F0C8FCBB6A1B68FB62FA6A99
:100430007B6813407A689A4206D1BB6A1A687B6867
:10044000DB431A40BB6A1A6005F0E6FC01237B62BD
:10045000FB6A23F07F43FB62FB6A18463037BD46D8
:1004600080BD00BF04ED00E080B590B000AFF86043
:10047000B9607A603B60FB687B630023BB63002349
:100480003B63FB68002B0AD14FF0500383F31188C4
:10049000BFF36F8FBFF34F8F3B6200BFFEE7BB68B8
:1004A00003F07F43002B0AD04FF0500383F31188F1
:1004B000BFF36F8FBFF34F8FFB6100BFFEE7BB68D9
:1004C000002B0AD14FF0500383F31188BFF36F8FD5
:1004D000BFF34F8FBB6100BFFEE704F077FB03461D
:1004E000002B02D1BB6C002B01D1012300E00023C3
:1004F000002B0AD14FF0500383F31188BFF36F8FA5
:10050000BFF34F8F7B6100BFFEE703F05FFB7B6BA8
:100510001B68FB623A68B968F86A00F0B3F9B86220
:10052000BB6A002B0ED0FB6AFB630023BB647B68B5
:10053000002B28D07B6B1A68BB68DB431A407B6BAF
:100540001A6020E0BB6C002B04D1FB6AFB63012323
:100550003B6318E07B68002B03D0BB6B43F08073D8
:10056000BB633B68002B03D0BB6B43F08063BB6372
:100570007B6B181DBA68BB6B1343BA6C194603F04A
:10058000CDFE0023FB6303F02FFB7862BB6C002BD6
:1005900031D07B6A002B07D1194B4FF080521A6083
:1005A000BFF34F8FBFF36F8F04F028FDF863FB6B31
:1005B00003F00073002B1AD105F0FEFB7B6B1B6868
:1005C000FB633A68B968F86B00F05CF90346002BEE
:1005D00009D07B68002B06D07B6B1A68BB68DB43B5
:1005E0001A407B6B1A6001233B6305F015FCFB6B23
:1005F00023F07F43FB63FB6B18464037BD4680BD4D
:1006000004ED00E080B586B000AF786039607B68AB
:100610007B617B68002B0AD14FF0500383F3118874
:10062000BFF36F8FBFF34F8FFB6000BFFEE73B68E8
:1006300003F07F43002B0AD04FF0500383F311885F
:10064000BFF36F8FBFF34F8FBB6000BFFEE705F0B6
:10065000B3FB7B691B683B617B691A683B68DB43C2
:100660001A407B691A6005F0D7FB3B6918461837BA
:10067000BD4680BD80B489B000AF78607B68FB6107
:10068000EFF311824FF0500383F31188BFF36F8FA4
:10069000BFF34F8FFA60BB60FB68BB61FB691B68EF
:1006A0007B61BB693B613B6983F3118800BF7B6958
:1006B00018462437BD465DF8047B704780B58EB080
:1006C00000AF7860396000233B637B68BB62002326
:1006D000FB627B68002B0AD14FF0500383F3118833
:1006E000BFF36F8FBFF34F8F3B6100BFFEE73B68E7
:1006F00003F07F43002B0AD04FF0500383F311889F
:10070000BFF36F8FBFF34F8FFB6000BFFEE7BB6A85
:1007100004337B627B6A08333B6203F057FA7B6ADF
:10072000DB687B63BB6A1A683B681A43BB6A1A6062
:100730003CE07B6B5B68FB617B6B1B68BB610023F0
:10074000FB62BB6903F07F437B61BB6923F07F439E
:10075000BB617B6903F08063002B08D1BB6A1A6818
:10076000BB691340002B0BD00123FB6208E0BB6A7E
:100770001A68BB691340BA699A4201D10123FB622E
:10078000FB6A002B10D07B6903F08073002B03D031
:100790003A6BBB6913433B63BB6A1B6843F000734E
:1007A0001946786B03F0E6FEFB697B637A6B3B6A64
:1007B0009A42BED1BB6A1A683B6BDB431A40BB6AE4
:1007C0001A6003F011FABB6A1B6818463837BD4639
:1007D00080BD80B586B000AF78607B687B617B6947
:1007E000002B0AD14FF0500383F31188BFF36F8FB2
:1007F000BFF34F8FFB6000BFFEE77B6904333B61B3
:1008000003F0E4F917E03B69DA683B6908339A4280
:100810000AD14FF0500383F31188BFF36F8FBFF3FA
:100820004F8FBB6000BFFEE73B69DB684FF0007194
:10083000184603F09FFE3B691B68002BE3D103F0D1
:10084000D3F9786907F0E8FC00BF1837BD4680BDD2
:1008500080B582B000AF7860396039687868FFF79A
:100860002DFF00BF0837BD4680BD80B582B000AF08
:100870007860396039687868FFF7C4FE00BF0837D0
:10088000BD4680BD80B487B000AFF860B9607A60C3
:1008900000237B617B68002B07D1FA68BB6813409B
:1008A000002B0AD001237B6107E0FA68BB68134084
:1008B000BA689A4201D101237B617B6918461C37D3
:1008C000BD465DF8047B704780B485B000AF7860AA
:1008D0007B68BB607B68002B02D10023FB6002E0D9
:1008E000BB689B69FB60FB6818461437BD465DF822
:1008F000047B704780B483B000AF786039607B6858
:100900003A689A6100BF0C37BD465DF8047B7047BA
:1009100080B483B000AF78607B6803F108027B6825
:100920005A607B684FF0FF329A607B6803F10802DF
:100930007B68DA607B6803F108027B681A617B6878
:1009400000221A6000BF0C37BD465DF8047B70477B
:1009500080B483B000AF78607B6800221A6100BF6A
:100960000C37BD465DF8047B704780B485B000AF9E
:10097000786039607B685B68FB603B68FA685A6046
:10098000FB689A683B689A60FB689B683A685A60A3
:10099000FB683A689A603B687A681A617B681B68F2
:1009A0005A1C7B681A6000BF1437BD465DF8047B93
:1009B000704780B485B000AF786039603B681B68D1
:1009C000BB60BB68B3F1FF3F03D17B681B69FB6071
:1009D0000CE07B680833FB6002E0FB685B68FB604F
:1009E000FB685B681B68BA689A42F6D2FB685A6873
:1009F0003B685A603B685B683A689A603B68FA6893
:100A00009A60FB683A685A603B687A681A617B684A
:100A10001B685A1C7B681A6000BF1437BD465DF81E
:100A2000047B704780B485B000AF78607B681B6939
:100A3000FB607B685B687A6892689A607B689B68F9
:100A40007A6852685A60FB685B687A689A4203D198
:100A50007B689A68FB685A607B6800221A61FB68B1
:100A60001B685A1EFB681A60FB681B68184614371F
:100A7000BD465DF8047B704780B586B000AF7860F6
:100A8000396001237B617B683B613B69002B0AD1A4
:100A90004FF0500383F31188BFF36F8FBFF34F8F75
:100AA000FB6000BFFEE73B69002B5DD03B69DB6B61
:100AB000002B59D03B691A6C3B69DB6B0021A3FB0F
:100AC0000223002B00D001210B46002B4CD105F056
:100AD00073F93B691A683B69DB6B3969096C01FB87
:100AE00003F31A443B699A603B6900229A633B69AD
:100AF0001A683B695A603B691A683B69DB6B013BCA
:100B00003969096C01FB03F31A443B69DA603B69FC
:100B1000FF2283F844203B69FF2283F845203B688D
:100B2000002B14D13B691B69002B1AD03B69103391
:100B3000184603F049FC0346002B12D0154B4FF02A
:100B400080521A60BFF34F8FBFF36F8F09E03B698C
:100B500010331846FFF7DCFE3B6924331846FFF7D5
:100B6000D7FE05F059F901E000237B617B69002B7A
:100B70000AD14FF0500383F31188BFF36F8FBFF397
:100B80004F8FBB6000BFFEE77B6918461837BD4634
:100B900080BD00BF04ED00E080B58AB002AFF86010
:100BA000B9601346FB710023FB61FB68002B2ED05C
:100BB0000021BA68FB68A3FB0223002B00D00121AF
:100BC0000B46002B23D1FB68BA6802FB03F313F139
:100BD000550F1CD8FB68BA6802FB03F3BB61BB6905
:100BE0005433184607F06AFAF861FB69002B1CD0F1
:100BF000FB697B617B6954337B61FA79FB69009304
:100C000013467A69B968F86800F014F80DE0FB69DA
:100C1000002B0AD14FF0500383F31188BFF36F8F7D
:100C2000BFF34F8F3B6100BFFEE7FB6918462037DB
:100C3000BD4680BD80B584B000AFF860B9607A6011
:100C4000FB70BB68002B03D1BB69BA691A6002E074
:100C5000BB697A681A60BB69FA68DA63BB69BA680B
:100C60001A640121B869FFF707FFBB69FA7883F8B6
:100C70005020BB6900229A6400BF1037BD4680BD7A
:100C800080B582B000AF78607B68002B0ED07B68A7
:100C900000229A607B6800221A607B680022DA607A
:100CA000002300220021786800F0B4F800BF083764
:100CB000BD4680BD80B586B000AF0346FB71012301
:100CC0007B6100233B61FB791A4639697869FFF73C
:100CD00063FFF860F868FFF7D3FFFB681846183722
:100CE000BD4680BD90B587B000AF78607B683B6142
:100CF0003B69002B0AD14FF0500383F31188BFF3F7
:100D00006F8FBFF34F8FFB6000BFFEE73B699C68AE
:100D100003F04CFF03469C4211D13B69DB685A1E2D
:100D20003B69DA603B69DB68002B05D100230022B8
:100D30000021386900F06EF801237B6101E0002397
:100D40007B617B6918461C37BD4690BD90B587B066
:100D500000AF786039607B683B613B69002B0AD14A
:100D60004FF0500383F31188BFF36F8FBFF34F8FA2
:100D7000FB6000BFFEE73B699C6803F017FF03467A
:100D80009C4207D13B69DB685A1C3B69DA6001234E
:100D90007B610CE03968386900F0B4FB78617B69ED
:100DA000002B04D03B69DB685A1C3B69DA607B6925
:100DB00018461C37BD4690BD80B584B000AF786042
:100DC00039600023FB607B68002B10D03A687B6899
:100DD0009A420CD8022200217868FFF7DDFEF86005
:100DE000FB68002B11D0FB683A689A630DE0FB6842
:100DF000002B0AD14FF0500383F31188BFF36F8F9C
:100E0000BFF34F8FBB6000BFFEE7FB68184610378B
:100E1000BD4680BD80B58EB000AFF860B9607A6025
:100E20003B6000237B63FB683B633B6B002B0AD179
:100E30004FF0500383F31188BFF36F8FBFF34F8FD1
:100E40007B6200BFFEE7BB68002B03D13B6B1B6CD2
:100E5000002B01D1012300E00023002B0AD14FF029
:100E6000500383F31188BFF36F8FBFF34F8F3B6243
:100E700000BFFEE73B68022B03D13B6BDB6B012B12
:100E800001D1012300E00023002B0AD14FF05003D1
:100E900083F31188BFF36F8FBFF34F8FFB6100BFE8
:100EA000FEE703F093FE0346002B02D17B68002B84
:100EB00001D1012300E00023002B0AD14FF05003A1
:100EC00083F31188BFF36F8FBFF34F8FBB6100BFF8
:100ED000FEE704F071FF3B6B9A6B3B6BDB6B9A4256
:100EE00002D33B68022B45D13B6B9B6BFB623A689C
:100EF000B968386B00F0B0FEB8623B6B9B6C002B9E
:100F000014D03B68022B02D1FB6A002B2ED1386B28
:100F100001F03DF90346002B28D04A4B4FF0805298
:100F20001A60BFF34F8FBFF36F8F1FE03B6B5B6A9D
:100F3000002B10D03B6B2433184603F045FA0346D0
:100F4000002B13D03F4B4FF080521A60BFF34F8FEE
:100F5000BFF36F8F0AE0BB6A002B07D0394B4FF00D
:100F600080521A60BFF34F8FBFF36F8F04F054FFAE
:100F7000012363E07B68002B03D104F04DFF0023C5
:100F80005CE07B6B002B06D107F11003184603F0E1
:100F9000D7FB01237B6304F03FFF02F017FE04F050
:100FA0000BFF3B6B93F844305BB2B3F1FF3F03D1CF
:100FB0003B6B002283F844203B6B93F845305BB2D7
:100FC000B3F1FF3F03D13B6B002283F8452004F0CF
:100FD00023FF3A1D07F110031146184603F0C6FB24
:100FE0000346002B24D1386B00F05FFF0346002B33
:100FF00018D03B6B10337A681146184603F06AF933
:10100000386B00F0B9FE02F0EFFD0346002B7FF4D1
:1010100060AF0C4B4FF080521A60BFF34F8FBFF39D
:101020006F8F56E7386B00F0A7FE02F0DDFD50E74A
:10103000386B00F0A1FE02F0D7FD002318463837C8
:10104000BD4680BD04ED00E080B592B000AFF86011
:10105000B9607A603B60FB683B643B6C002B0AD153
:101060004FF0500383F31188BFF36F8FBFF34F8F9F
:10107000FB6200BFFEE7BB68002B03D13B6C1B6C1F
:10108000002B01D1012300E00023002B0AD14FF0F7
:10109000500383F31188BFF36F8FBFF34F8FBB6291
:1010A00000BFFEE73B68022B03D13B6CDB6B012BDF
:1010B00001D1012300E00023002B0AD14FF050039F
:1010C00083F31188BFF36F8FBFF34F8F7B6200BF35
:1010D000FEE704F052FFEFF311824FF0500383F369
:1010E0001188BFF36F8FBFF34F8F3A62FB613B6A8A
:1010F000FB633B6C9A6B3B6CDB6B9A4202D33B68A5
:10110000022B5DD13B6C93F8453087F83B303B6C4C
:101110009B6B7B633A68B968386C00F09DFD97F96A
:101120003B30B3F1FF3F29D13B6C9B6C002B12D0BD
:101130003B68022B02D17B6B002B3ED1386C01F057
:1011400026F80346002B38D07B68002B35D07B680F
:1011500001221A6031E03B6C5B6A002B2DD03B6CA6
:101160002433184603F030F90346002B25D07B6862
:10117000002B22D07B6801221A601EE002F052FE92
:10118000386397F93B303A6B9A4216D997F93B305E
:101190007F2B0AD14FF0500383F31188BFF36F8F79
:1011A000BFF34F8FBB6100BFFEE797F83B300133C1
:1011B000DBB25AB23B6C83F8452001237B6401E02B
:1011C00000237B64FB6B7B617B6983F3118800BF29
:1011D0007B6C18464837BD4680BD80B590B000AFE7
:1011E000786039607B68BB63BB6B002B0AD14FF022
:1011F000500383F31188BFF36F8FBFF34F8F7B6270
:1012000000BFFEE7BB6B1B6C002B0AD04FF05003F6
:1012100083F31188BFF36F8FBFF34F8F3B6200BF23
:10122000FEE7BB6B1B68002B03D1BB6B9B68002BDD
:1012300001D1012300E00023002B0AD14FF050031D
:1012400083F31188BFF36F8FBFF34F8FFB6100BF34
:10125000FEE704F092FEEFF311824FF0500383F3A8
:101260001188BFF36F8FBFF34F8FBA617B61BB698A
:101270007B63BB6B9B6B3B63BB6BDB6B3A6B9A42D9
:1012800053D2BB6B93F8453087F82F303B6B5A1C19
:10129000BB6B9A6397F92F30B3F1FF3F23D1BB6B40
:1012A0009B6C002B0CD0B86B00F071FF0346002B39
:1012B00038D03B68002B35D03B6801221A6031E002
:1012C000BB6B5B6A002B2DD0BB6B2433184603F03D
:1012D0007BF80346002B25D03B68002B22D03B68CF
:1012E00001221A601EE002F09DFDB86297F92F30CE
:1012F000BA6A9A4216D997F92F307F2B0AD14FF04C
:10130000500383F31188BFF36F8FBFF34F8F3B619F
:1013100000BFFEE797F82F300133DBB25AB2BB6B48
:1013200083F845200123FB6301E00023FB637B6B13
:10133000FB60FB6883F3118800BFFB6B18464037E6
:10134000BD4680BD80B58CB000AFF860B9607A60F2
:101350000023FB62FB68BB62BB6A002B0AD14FF023
:10136000500383F31188BFF36F8FBFF34F8F3B623E
:1013700000BFFEE7BB68002B03D1BB6A1B6C002BD0
:1013800001D1012300E00023002B0AD14FF05003CC
:1013900083F31188BFF36F8FBFF34F8FFB6100BFE3
:1013A000FEE703F013FC0346002B02D17B68002B01
:1013B00001D1012300E00023002B0AD14FF050039C
:1013C00083F31188BFF36F8FBFF34F8FBB6100BFF3
:1013D000FEE704F0F1FCBB6A9B6B7B627B6A002B2F
:1013E0001FD0B968B86A00F0A1FC7B6A5A1EBB6ABC
:1013F0009A63BB6A1B69002B0FD0BB6A1033184677
:1014000002F0E2FF0346002B07D03D4B4FF0805225
:101410001A60BFF34F8FBFF36F8F04F0FDFC012301
:1014200069E07B68002B03D104F0F6FC002362E046
:10143000FB6A002B06D107F11003184603F080F970
:101440000123FB6204F0E8FC02F0C0FB04F0B4FCF2
:10145000BB6A93F844305BB2B3F1FF3F03D1BB6A80
:10146000002283F84420BB6A93F845305BB2B3F1A5
:10147000FF3F03D1BB6A002283F8452004F0CCFC77
:101480003A1D07F110031146184603F06FF90346A1
:10149000002B23D1B86A00F0CEFC0346002B17D0F6
:1014A000BB6A24337A681146184602F013FFB86A03
:1014B00000F062FC02F098FB0346002B89D1104B30
:1014C0004FF080521A60BFF34F8FBFF36F8F80E7EA
:1014D000B86A00F051FC02F087FB7AE7B86A00F0C6
:1014E0004BFC02F081FBB86A00F0A5FC0346002B20
:1014F0003FF46FAF002318463037BD4680BD00BFB4
:1015000004ED00E080B58EB000AF78603960002354
:101510007B637B68FB6200233B63FB6A002B0AD181
:101520004FF0500383F31188BFF36F8FBFF34F8FDA
:101530003B6200BFFEE7FB6A1B6C002B0AD04FF03A
:10154000500383F31188BFF36F8FBFF34F8FFB619D
:1015500000BFFEE703F03AFB0346002B02D13B68D5
:10156000002B01D1012300E00023002B0AD14FF012
:10157000500383F31188BFF36F8FBFF34F8FBB61AD
:1015800000BFFEE704F018FCFB6A9B6BBB62BB6A02
:10159000002B24D0BB6A5A1EFB6A9A63FB6A1B6845
:1015A000002B04D103F042FD0246FB6A9A60FB6AFD
:1015B0001B69002B0FD0FB6A1033184602F004FFA2
:1015C0000346002B07D0544B4FF080521A60BFF3F4
:1015D0004F8FBFF36F8F04F01FFC012397E03B6830
:1015E000002B11D13B6B002B0AD04FF0500383F33B
:1015F0001188BFF36F8FBFF34F8F7B6100BFFEE792
:1016000004F00AFC002382E07B6B002B06D107F17B
:101610000C03184603F094F801237B6304F0FCFBF1
:1016200002F0D4FA04F0C8FBFB6A93F844305BB2D2
:10163000B3F1FF3F03D1FB6A002283F84420FB6A29
:1016400093F845305BB2B3F1FF3F03D1FB6A002250
:1016500083F8452004F0E0FB3A4607F10C031146FD
:10166000184603F083F80346002B32D1F86A00F0E5
:10167000E2FB0346002B26D0FB6A1B68002B09D136
:1016800004F09AFBFB6A9B68184603F0BDFA3863C6
:1016900004F0C2FBFB6A24333A681146184602F094
:1016A00019FEF86A00F068FB02F09EFA0346002B70
:1016B0007FF468AF184B4FF080521A60BFF34F8F22
:1016C000BFF36F8F5EE7F86A00F056FB02F08CFA0A
:1016D00058E7F86A00F050FB02F086FAF86A00F06A
:1016E000AAFB0346002B3FF44DAF3B6B002B0DD004
:1016F00004F062FBF86A00F097FA7862FB6A9B6874
:10170000796A184603F0C2FB04F086FB00231846F2
:101710003837BD4680BD00BF04ED00E080B58EB017
:1017200000AFF860B9607A6000237B63FB683B63BD
:101730003B6B002B0AD14FF0500383F31188BFF3AA
:101740006F8FBFF34F8F7B6200BFFEE7BB68002B3C
:1017500003D13B6B1B6C002B01D1012300E0002364
:10176000002B0AD14FF0500383F31188BFF36F8F22
:10177000BFF34F8F3B6200BFFEE703F027FA03463B
:10178000002B02D17B68002B01D1012300E0002354
:10179000002B0AD14FF0500383F31188BFF36F8FF2
:1017A000BFF34F8FFB6100BFFEE704F005FB3B6B0F
:1017B0009B6BFB62FB6A002B21D03B6BDB68BB623F
:1017C000B968386B00F0B2FA3B6BBA6ADA603B6B0F
:1017D0005B6A002B0FD03B6B2433184602F0F4FDFC
:1017E0000346002B07D03D4B4FF080521A60BFF3E9
:1017F0004F8FBFF36F8F04F00FFB012369E07B680D
:10180000002B03D104F008FB002362E07B6B002B6C
:1018100006D107F11403184602F092FF01237B63FF
:1018200004F0FAFA02F0D2F904F0C6FA3B6B93F82E
:1018300044305BB2B3F1FF3F03D13B6B002283F82E
:1018400044203B6B93F845305BB2B3F1FF3F03D1CB
:101850003B6B002283F8452004F0DEFA3A1D07F1C5
:1018600014031146184602F081FF0346002B23D1D2
:10187000386B00F0E0FA0346002B17D03B6B2433A3
:101880007A681146184602F025FD386B00F074FAAC
:1018900002F0AAF90346002B87D1104B4FF080527B
:1018A0001A60BFF34F8FBFF36F8F7EE7386B00F086
:1018B00063FA02F099F978E7386B00F05DFA02F00C
:1018C00093F9386B00F0B7FA0346002B3FF46DAF85
:1018D000002318463837BD4680BD00BF04ED00E048
:1018E00080B590B000AFF860B9607A60FB68BB6308
:1018F000BB6B002B0AD14FF0500383F31188BFF369
:101900006F8FBFF34F8F7B6200BFFEE7BB68002B7A
:1019100003D1BB6B1B6C002B01D1012300E0002322
:10192000002B0AD14FF0500383F31188BFF36F8F60
:10193000BFF34F8F3B6200BFFEE704F01EFBEFF3E7
:1019400011824FF0500383F31188BFF36F8FBFF301
:101950004F8FFA61BB61FB697B63BB6B9B6B3B6326
:101960003B6B002B46D0BB6B93F8443087F82F308D
:10197000B968B86B00F0DAF93B6B5A1EBB6B9A631F
:1019800097F92F30B3F1FF3F12D1BB6B1B69002BCE
:101990002DD0BB6B1033184602F016FD0346002B0A
:1019A00025D07B68002B22D07B6801221A601EE0C4
:1019B00002F038FAB86297F92F30BA6A9A4216D90B
:1019C00097F92F307F2B0AD14FF0500383F3118802
:1019D000BFF36F8FBFF34F8F7B6100BFFEE797F8B8
:1019E0002F300133DBB25AB2BB6B83F844200123A2
:1019F000FB6301E00023FB637B6B3B613B6983F38B
:101A0000118800BFFB6B18464037BD4680BD80B5CE
:101A10008CB000AF786039607B68BB62BB6A002B1A
:101A20000AD14FF0500383F31188BFF36F8FBFF3D8
:101A30004F8FFB6100BFFEE73B68002B03D1BB6A01
:101A40001B6C002B01D1012300E00023002B0AD1E5
:101A50004FF0500383F31188BFF36F8FBFF34F8FA5
:101A6000BB6100BFFEE7BB6A1B6C002B0AD14FF0C5
:101A7000500383F31188BFF36F8FBFF34F8F7B61E8
:101A800000BFFEE704F079FAEFF311824FF0500344
:101A900083F31188BFF36F8FBFF34F8F3A61FB6001
:101AA0003B697B62BB6A9B6B002B0CD0BB6ADB681B
:101AB0003B623968B86A00F039F9BB6A3A6ADA60A1
:101AC0000123FB6201E00023FB627B6ABB60BB6811
:101AD00083F3118800BFFB6A18463037BD4680BDCE
:101AE00080B584B000AF78607B68002B0AD14FF0DE
:101AF000500383F31188BFF36F8FBFF34F8FBB6029
:101B000000BFFEE704F058F97B689B6BFB6004F0B4
:101B100083F9FB6818461037BD4680BD80B586B096
:101B200000AF78607B687B617B69002B0AD14FF046
:101B3000500383F31188BFF36F8FBFF34F8FFB60A8
:101B400000BFFEE704F038F97B69DA6B7B699B6BB9
:101B5000D31A3B6104F060F93B6918461837BD465B
:101B600080BD80B487B000AF78607B687B617B69A3
:101B7000002B0AD14FF0500383F31188BFF36F8F0E
:101B8000BFF34F8FFB6000BFFEE77B699B6B3B6140
:101B90003B6918461C37BD465DF8047B704780B52D
:101BA00084B000AF78607B68FB60FB68002B0AD1D3
:101BB0004FF0500383F31188BFF36F8FBFF34F8F44
:101BC000BB6000BFFEE7F86800F030FAF86806F086
:101BD00023FB00BF1037BD4680BD80B483B000AF8B
:101BE00078607B68DB6C18460C37BD465DF8047B7B
:101BF000704780B483B000AF786039607B683A6822
:101C0000DA6400BF0C37BD465DF8047B704780B4D2
:101C100083B000AF78607B6893F8503018460C377B
:101C2000BD465DF8047B704780B485B000AF786036
:101C30007B685B6A002B06D07B681B6B1B68C3F15B
:101C40000703FB6001E00023FB60FB6818461437C4
:101C5000BD465DF8047B704780B586B000AFF86084
:101C6000B9607A6000237B61FB689B6B3B61FB681A
:101C70001B6C002B0DD1FB681B68002B4DD1FB6842
:101C80009B68184603F05EF87861FB6800229A6052
:101C900043E07B68002B19D1FB685868FB681B6C1C
:101CA0001A46B96830F0ECFDFB685A68FB681B6C9B
:101CB0001A44FB685A60FB685A68FB689B689A4242
:101CC0002BD3FB681A68FB685A6026E0FB68D8686B
:101CD000FB681B6C1A46B96830F0D2FDFB68DA6805
:101CE000FB681B6C5B421A44FB68DA60FB68DA68CD
:101CF000FB681B689A4207D2FB689A68FB681B6CFA
:101D00005B421A44FB68DA607B68022B05D13B69B1
:101D1000002B02D03B69013B3B613B695A1CFB68CD
:101D20009A637B6918461837BD4680BD80B582B07E
:101D300000AF786039607B681B6C002B18D07B6823
:101D4000DA687B681B6C1A447B68DA607B68DA6847
:101D50007B689B689A4203D37B681A687B68DA6069
:101D60007B68D9687B681B6C1A46386830F088FD40
:101D700000BF0837BD4680BD80B584B000AF786035
:101D800004F01AF87B6893F84530FB731EE07B681B
:101D90009B6C002B08D0786800F0F9F90346002B03
:101DA00010D002F049FD0DE07B685B6A002B12D079
:101DB0007B682433184602F007FB0346002B01D052
:101DC00002F03AFDFB7B013BDBB2FB7397F90F306E
:101DD000002BDCDC00E000BF7B68FF2283F845209D
:101DE00004F01AF803F0E8FF7B6893F84430BB7303
:101DF00011E07B681B69002B12D07B6810331846FA
:101E000002F0E2FA0346002B01D002F015FDBB7B85
:101E1000013BDBB2BB7397F90E30002BE9DC00E02D
:101E200000BF7B68FF2283F8442003F0F5FF00BF6A
:101E30001037BD4680BD80B584B000AF786003F038
:101E4000BBFF7B689B6B002B02D10123FB6001E091
:101E50000023FB6003F0E0FFFB6818461037BD4627
:101E600080BD80B487B000AF78607B683B613B6920
:101E7000002B0AD14FF0500383F31188BFF36F8F0B
:101E8000BFF34F8FFB6000BFFEE73B699B6B002BEE
:101E900002D101237B6101E000237B617B6918464D
:101EA0001C37BD465DF8047B704780B584B000AF39
:101EB000786003F081FF7B689A6B7B68DB6B9A42EA
:101EC00002D10123FB6001E00023FB6003F0A4FFCB
:101ED000FB6818461037BD4680BD80B487B000AFA0
:101EE00078607B683B613B69002B0AD14FF050035F
:101EF00083F31188BFF36F8FBFF34F8FFB6000BF79
:101F0000FEE73B699A6B3B69DB6B9A4202D1012386
:101F10007B6101E000237B617B6918461C37BD466D
:101F20005DF8047B704780B487B000AF786039609B
:101F300000233B617B68002B0AD14FF0500383F3F1
:101F40001188BFF36F8FBFF34F8FFB6000BFFEE7B9
:101F50003B68002B24D000237B611EE0184A7B697C
:101F6000DB0013445B687A689A4205D17B69DB0029
:101F7000134A13443B6113E03B69002B0AD1104A1A
:101F80007B6952F83330002B04D17B69DB000C4AAB
:101F900013443B617B6901337B617B69072BDDD98E
:101FA0003B69002B05D03B693A681A603B697A6847
:101FB0005A6000BF1C37BD465DF8047B704700BF08
:101FC000A80B002080B487B000AF786000233B618D
:101FD0007B68002B0AD14FF0500383F31188BFF3C5
:101FE0006F8FBFF34F8FFB6000BFFEE700237B6165
:101FF00010E00D4A7B69DB0013445B687A689A4203
:1020000005D1094A7B6952F833303B6105E07B69B1
:1020100001337B617B69072BEBD93B6918461C3781
:10202000BD465DF8047B7047A80B002080B485B0E6
:1020300000AF78607B68002B0AD14FF0500383F328
:102040001188BFF36F8FBFF34F8FBB6000BFFEE7F8
:102050000023FB6016E0104AFB68DB0013445B685A
:102060007A689A420BD10C4AFB68002142F833107F
:10207000094AFB68DB00134400225A6006E0FB6853
:102080000133FB60FB68072BE5D900BF00BF1437A5
:10209000BD465DF8047B7047A80B002080B584B076
:1020A00000AF7860002204217868FEF775FDF860C3
:1020B000FB6818461037BD4680BD80B584B000AFC0
:1020C0007860396003F078FE7B689B6C002B02D04F
:1020D0000023FB600BE07B689B6B002B02D000238E
:1020E000FB6004E07B683A689A640123FB6003F0BC
:1020F00093FEFB6818461037BD4680BD80B584B09E
:1021000000AF786039607B68BB60BB689B6C3A68E5
:102110009A4202D00023FB600FE0BB689B6B002B50
:1021200002D00023FB6008E003F046FEBB680022FB
:102130009A6403F071FE0123FB60FB6818461037B8
:10214000BD4680BD80B584B000AF786039600023A3
:10215000FB6007F10C033A6819467868FFF7F2F85C
:10216000FB6818461037BD4680BD80B584B000AF0F
:1021700078600023FB6007F10C03002219467868A1
:10218000FFF7AEFBFB6818461037BD4680BD80B533
:102190008AB000AF78607B689B6C3B6200237B62F7
:1021A0003B6A002B0AD14FF0500383F31188BFF331
:1021B0006F8FBFF34F8F7B6100BFFEE73B6A9A6B67
:1021C0003B6ADB6B9A420AD34FF0500383F31188CA
:1021D000BFF36F8FBFF34F8F3B6100BFFEE73B6ADA
:1021E0009A6B3B6ADB6B9A423CD23B6A93F8453070
:1021F000FB773B1D00221946386AFFF72DFD7862F8
:1022000097F91F30B3F1FF3F0ED13B6A5B6A002B99
:1022100028D03B6A2433184602F0D6F80346002B38
:1022200020D001237B621DE001F0FCFDB86197F92D
:102230001F30BA699A4215D997F91F307F2B0AD1FE
:102240004FF0500383F31188BFF36F8FBFF34F8FAD
:10225000FB6000BFFEE7FB7F0133DBB25AB23B6A93
:1022600083F845207B6A18462837BD4680BD00BFED
:1022700080B58CB002AFF860B9607A607B68012BE2
:1022800010D1012387F82330FB68042B1BD84FF0B3
:10229000500383F31188BFF36F8FBFF34F8FFB6140
:1022A00000BFFEE7002387F82330FB68002B0AD12C
:1022B0004FF0500383F31188BFF36F8FBFF34F8F3D
:1022C000BB6100BFFEE7BA68FB689A420AD94FF0CB
:1022D000500383F31188BFF36F8FBFF34F8F7B6180
:1022E00000BFFEE7BB68002B01D10123BB60FB6888
:1022F00013F1260F09D8FB680133FB60FB68243318
:10230000184605F0DBFE786201E000237B627B6A01
:10231000002B0AD07B6A03F1240197F82330009345
:10232000BB68FA68786A00F0D7FD7B6A18462837E0
:10233000BD4680BD80B584B000AF78607B68FB602F
:10234000FB68002B0AD14FF0500383F31188BFF3D1
:102350006F8FBFF34F8FBB6000BFFEE7FB681B7F33
:1023600003F00203002B03D1F86805F055FF04E0E9
:1023700024220021F86830F01DFB00BF1037BD4655
:1023800080BD80B588B002AF78607B683B61002378
:102390007B613B69002B0AD14FF0500383F3118816
:1023A000BFF36F8FBFF34F8FBB6000BFFEE73B698A
:1023B0001B6AFB6003F000FD3B691B69002B15D114
:1023C0003B695B69002B11D13B6999693B699A684C
:1023D0003B69D8683B691B7F00930346386900F06E
:1023E0007BFD01237B613B69FA681A6203F014FDEF
:1023F0007B6918461837BD4680BD80B487B000AFF2
:10240000786039607B683B613B69002B0AD14FF0F3
:10241000500383F31188BFF36F8FBFF34F8FFB60BF
:1024200000BFFEE73B68002B01D101233B603B6905
:102430009B683A689A4205D23B693A68DA600123A0
:102440007B6101E000237B617B6918461C37BD4638
:102450005DF8047B704780B487B000AF78607B681C
:102460003B613B69002B0AD14FF0500383F3118885
:10247000BFF36F8FBFF34F8FBB6000BFFEE73B69B9
:102480001B68FB603B699A683B691B6813447B616E
:102490003B695B687A69D31A7B613B691B68FA68A0
:1024A0009A42ECD17B69013B7B613B699B687A690D
:1024B0009A4204D33B699B687A69D31A7B617B6932
:1024C00018461C37BD465DF8047B704780B586B062
:1024D00000AF78607B687B617B69002B0AD14FF08D
:1024E000500383F31188BFF36F8FBFF34F8FFB60EF
:1024F00000BFFEE7786900F0CFFC38613B69184601
:102500001837BD4680BD80B592B002AFF860B960A3
:102510007A603B60FB687B630023FB637B68BB6383
:1025200000233B63BB68002B0AD14FF0500383F3B9
:102530001188BFF36F8FBFF34F8FBB6200BFFEE701
:102540007B6B002B0AD14FF0500383F31188BFF34C
:102550006F8FBFF34F8F7B6200BFFEE77B6B9B6883
:10256000013B3B637B6B1B7F03F00103002B18D007
:10257000BB6B0433BB63BA6B7B689A420AD84FF0DB
:10258000500383F31188BFF36F8FBFF34F8F3B620C
:1025900000BFFEE7BA6B3B6B9A4208D900233B6051
:1025A00005E0BA6B3B6B9A4201D93B6BBB633B685E
:1025B000002B41D007F11403184602F09BF803F0FA
:1025C000FBFB786BFFF747FFF863FA6BBB6B9A4234
:1025D00018D20021002003F0C1F97B6B5B69002B4E
:1025E0000AD04FF0500383F31188BFF36F8FBFF30E
:1025F0004F8FFB6100BFFEE702F0D8FA02467B6B0B
:102600005A6102E003F008FC16E003F005FC3B68A9
:102610000093002300220021002002F087FD7B6B45
:1026200000225A613A4607F114031146184602F097
:102630009DF80346002BC2D0FB6B002B03D1786BB7
:10264000FFF709FFF863BB6B0093FB6B7A68B9680F
:10265000786B00F098F8F862FB6A002B1BD0786B5F
:1026600000F01AFC02467B6BDB689A4213D301F040
:10267000ADFA7B6B1B69002B0BD07B6B18690023B9
:10268000009300230022002102F0D4FD7B6B002286
:102690001A6101F0A9FAFB6A18464037BD4680BDB1
:1026A00080B590B002AFF860B9607A603B60FB68BB
:1026B0003B637B687B63BB68002B0AD14FF0500300
:1026C00083F31188BFF36F8FBFF34F8F3B6200BF5F
:1026D000FEE73B6B002B0AD14FF0500383F31188C8
:1026E000BFF36F8FBFF34F8FFB6100BFFEE73B6B04
:1026F0001B7F03F00103002B02D07B6B04337B6351
:10270000386BFFF7A8FEF8627B6B0093FB6A7A6870
:10271000B968386B00F037F8B862BB6A002B2DD06F
:10272000386B00F0B9FB02463B6BDB689A4225D35D
:10273000EFF311824FF0500383F31188BFF36F8FD3
:10274000BFF34F8FBA617B61BB697B623B6B1B69D7
:10275000002B0DD03B6B18693B680193002300935D
:1027600000230022002102F08FFE3B6B00221A6141
:102770007B6A3B613B6983F3118800BFBB6A1846E3
:102780003837BD4680BD80B588B000AFF860B9600D
:102790007A603B60FB685B68FB61FB681B7F03F052
:1027A0000103002B20D07B687B617B697A689A42A9
:1027B0000AD04FF0500383F31188BFF36F8FBFF33C
:1027C0004F8FBB6100BFFEE73A68BB6A9A4208D3ED
:1027D00007F11401FB690422F86800F086FAF86139
:1027E00008E000237B6005E07A683B68934228BFDD
:1027F00013467B607B68002B08D0FB697A68B96858
:10280000F86800F072FA0246FB685A607B68184666
:102810002037BD4680BD80B58EB002AFF860B9608C
:102820007A603B60FB683B620023FB62BB68002B65
:102830000AD14FF0500383F31188BFF36F8FBFF3BA
:102840004F8FFB6100BFFEE73B6A002B0AD14FF0C0
:10285000500383F31188BFF36F8FBFF34F8FBB61BA
:1028600000BFFEE73B6A1B7F03F00103002B02D091
:1028700004237B6201E000237B623B68002B37D09E
:1028800003F09AFA386A00F007FBB862BA6A7B6A0A
:102890009A4217D80021002003F060F83B6A1B69B8
:1028A000002B0AD04FF0500383F31188BFF36F8FD2
:1028B000BFF34F8F7B6100BFFEE702F077F902465E
:1028C0003B6A1A6103F0A8FABA6A7B6A9A4213D883
:1028D0003B680093002300220021002002F026FC28
:1028E0003B6A00221A61386A00F0D6FAB86203E047
:1028F000386A00F0D1FAB862BA6A7B6A9A421DD986
:10290000BB6A7A68B968386A00F0D0F8F862FB6A86
:10291000002B13D001F05AF93B6A5B69002B0BD0F6
:102920003B6A58690023009300230022002102F033
:1029300081FC3B6A00225A6101F056F9FB6A184695
:102940003037BD4680BD80B588B000AF78607B6809
:10295000BB61BB69002B0AD14FF0500383F3118890
:10296000BFF36F8FBFF34F8F3B6100BFFEE7BB69C3
:102970001B7F03F00103002B22D0B86900F08CFA12
:1029800078617B69042B0AD9BB691B6807F10801D0
:102990000422B86900F016FABB68FB6112E07B699B
:1029A000002B0AD04FF0500383F31188BFF36F8FD1
:1029B000BFF34F8FFB6000BFFEE70023FB6101E028
:1029C0000023FB61FB6918462037BD4680BD80B5FA
:1029D00090B002AFF860B9607A603B60FB68FB6260
:1029E00000237B63BB68002B0AD14FF0500383F3B5
:1029F0001188BFF36F8FBFF34F8F3B6200BFFEE7BD
:102A0000FB6A002B0AD14FF0500383F31188BFF308
:102A10006F8FBFF34F8FFB6100BFFEE7FB6A1B7F29
:102A200003F00103002B02D004233B6301E00023E9
:102A30003B63F86A00F030FAB862BA6A3B6B9A42BC
:102A40002FD9BB6A7A68B968F86A00F02FF8786302
:102A50007B6B002B25D0EFF311824FF0500383F3F3
:102A60001188BFF36F8FBFF34F8FBA617B61BB6972
:102A70007B62FB6A5B69002B0DD0FB6A58693B687F
:102A800001930023009300230022002102F0FCFCAC
:102A9000FB6A00225A617B6A3B613B6983F31188C0
:102AA00000BF7B6B18463837BD4680BD80B588B007
:102AB00000AFF860B9607A603B60FB681B68BB617F
:102AC000FB681B7F03F00103002B13D007F11001FB
:102AD000BB690422F86800F075F9B8613B69FB61D5
:102AE0003B68043B3B60FA697B689A4204D9002347
:102AF000FB6101E07B68FB613A68FB69934228BF98
:102B000013467B617B69002B08D0BB697A69B96881
:102B1000F86800F057F90246FB681A607B691846AE
:102B20002037BD4680BD80B487B000AF78607B6839
:102B30003B613B69002B0AD14FF0500383F31188AE
:102B4000BFF36F8FBFF34F8FBB6000BFFEE73B69E2
:102B50001B68FB603B695B68FA689A4202D10123FB
:102B60007B6101E000237B617B6918461C37BD4611
:102B70005DF8047B704780B586B000AF78607B68F5
:102B8000FB60FB68002B0AD14FF0500383F31188E0
:102B9000BFF36F8FBFF34F8FBB6000BFFEE7FB68D3
:102BA0001B7F03F00103002B02D004233B6101E0F3
:102BB00000233B617868FFF74EFC02463B69934275
:102BC00002D301237B6101E000237B617B6918460E
:102BD0001837BD4680BD80B58CB002AF78603960D3
:102BE0007B683B623B6A002B0AD14FF0500383F3B2
:102BF0001188BFF36F8FBFF34F8FBB6100BFFEE73C
:102C0000EFF311824FF0500383F31188BFF36F8FFE
:102C1000BFF34F8F7A613B617B69FB613B6A1B6944
:102C2000002B10D03B6A18693B6801930023009386
:102C300000230022002102F027FC3B6A00221A61D7
:102C400001237B6201E000237B62FB69FB60FB6880
:102C500083F3118800BF7B6A18462837BD4680BDC4
:102C600080B58CB002AF786039607B683B623B6AAC
:102C7000002B0AD14FF0500383F31188BFF36F8FFD
:102C8000BFF34F8FBB6100BFFEE7EFF311824FF040
:102C9000500383F31188BFF36F8FBFF34F8F7A61B7
:102CA0003B617B69FB613B6A5B69002B10D03B6A2F
:102CB00058693B6801930023009300230022002100
:102CC00002F0E2FB3B6A00225A6101237B6201E0D1
:102CD00000237B62FB69FB60FB6883F3118800BF04
:102CE0007B6A18462837BD4680BD80B588B000AFE6
:102CF000F860B9607A603B607B68002B0AD14FF0C6
:102D0000500383F31188BFF36F8FBFF34F8FBB6105
:102D100000BFFEE7FB689A683B68D31A7A68934263
:102D200028BF1346FB613A68FB691A44FB689B683D
:102D30009A420AD94FF0500383F31188BFF36F8F83
:102D4000BFF34F8F7B6100BFFEE7FB689A693B686A
:102D50001344FA69B96818462FF092FD7A68FB6946
:102D60009A421CD97A68FB69D21AFB689B689A421E
:102D70000AD94FF0500383F31188BFF36F8FBFF36D
:102D80004F8F3B6100BFFEE7FB689869BA68FB693B
:102D9000D1187A68FB69D31A1A462FF071FD3A6888
:102DA0007B6813443B60FB689B683A689A4204D393
:102DB000FB689B683A68D31A3B603B68184620372B
:102DC000BD4680BD80B588B000AFF860B9607A605C
:102DD0003B607B68002B0AD14FF0500383F31188CE
:102DE000BFF36F8FBFF34F8FBB6100BFFEE7FB6880
:102DF0009A683B68D31A7A68934228BF1346FB61EE
:102E0000FA697B689A420AD94FF0500383F311881C
:102E1000BFF36F8FBFF34F8F7B6100BFFEE73A6850
:102E2000FB691A44FB689B689A420AD94FF0500329
:102E300083F31188BFF36F8FBFF34F8F3B6100BFE8
:102E4000FEE7FB689A693B681344FA691946B8685B
:102E50002FF016FD7A68FB699A420AD9BA68FB69B5
:102E6000D018FB6899697A68FB69D31A1A462FF063
:102E700007FD3A687B6813443B60FB689B683A68CF
:102E80009A4204D3FB689B683A68D31A3B603B685C
:102E900018462037BD4680BD80B485B000AF78604D
:102EA0007B689A687B685B681344FB607B681B687F
:102EB000FA68D31AFB607B689B68FA689A4204D36D
:102EC0007B689B68FA68D31AFB60FB681846143766
:102ED000BD465DF8047B704780B586B000AFF860F2
:102EE000B9607A603B6055237B617A687969B8681C
:102EF0002FF060FD0246BB6893420AD04FF05003AA
:102F000083F31188BFF36F8FBFF34F8F3B6100BF17
:102F1000FEE724220021F8682FF04CFDFB68BA6818
:102F20009A61FB687A689A60FB683A68DA60FB68C5
:102F300097F820201A7700BF1837BD4680BD80B4AF
:102F400083B000AF78607B681B6A18460C37BD46BB
:102F50005DF8047B704780B483B000AF786039605F
:102F60007B683A681A6200BF0C37BD465DF8047B87
:102F7000704780B483B000AF78607B681B7F03F03C
:102F80000103DBB218460C37BD465DF8047B704781
:102F900080B58CB004AFF860B9603B601346FB802D
:102FA000FB889B00184605F089F878617B69002B47
:102FB00013D05C2005F082F8F861FB69002B08D083
:102FC0005C220021F8692FF0F5FCFB697A691A632D
:102FD00005E0786905F020F901E00023FB61FB6959
:102FE000002B13D0FA8800230393FB690293FB6A3A
:102FF0000193BB6A00933B68B968F86800F00EF86B
:10300000F86900F099F80123BB6102E04FF0FF334B
:10301000BB61BB6918462037BD4680BD80B588B00E
:1030200000AFF860B9607A603B603B6B186B7B68FF
:103030009B001A46A5212FF0BDFC3B6B1A6B7B68E9
:1030400003F18043013B9B001344BB61BB6923F048
:103050000703BB61BB6903F00703002B0AD04FF0E5
:10306000500383F31188BFF36F8FBFF34F8F7B61E2
:1030700000BFFEE7BB68002B1ED00023FB6112E0FF
:10308000BA68FB69134419783A6BFB69134434330B
:103090000A461A70BA68FB6913441B78002B06D0E5
:1030A000FB690133FB61FB690F2BE9D900E000BF2D
:1030B0003B6B002283F84320BB6A062B0AD94FF0F2
:1030C000500383F31188BFF36F8FBFF34F8F3B61C2
:1030D00000BFFEE7BB6A062B01D90623BB623B6B30
:1030E000BA6ADA623B6BBA6ADA643B6B043318463D
:1030F000FDF72EFC3B6B18331846FDF729FC3B6BA4
:103100003A6B1A61BB6AC3F107023B6B9A613B6B76
:103110003A6B5A623A68F968B86902F009FD0246EA
:103120003B6B1A60FB6A002B02D0FB6A3A6B1A6099
:1031300000BF2037BD4680BD80B584B000AF786049
:1031400002F03AFE404B1B6801333F4A13603F4B8D
:103150001B68002B09D13D4A7B6813603A4B1B6802
:10316000012B10D101F0B4FB0DE0394B1B68002B93
:1031700009D1364B1B68DA6A7B68DB6A9A4202D84F
:10318000324A7B681360334B1B680133314A13604A
:10319000304B1A687B685A647B68DB6A01229A406C
:1031A0002D4B1B6813432C4A13607B68DA6A2B494A
:1031B00013469B0013449B000B4404331B68FB60C5
:1031C0007B68FA689A60FB689A687B68DA60FB68DB
:1031D0009B687A6804325A607B681A1DFB689A60A3
:1031E0007B68DA6A13469B0013449B001B4A1A440F
:1031F0007B685A617B68DA6A184913469B0013445E
:103200009B000B441B68591C144813469B00134435
:103210009B000344196002F0FFFD0D4B1B68002B5F
:103220000ED00A4B1B68DA6A7B68DB6A9A4207D2C7
:103230000B4B4FF080521A60BFF34F8FBFF36F8F6D
:1032400000BF1037BD4680BDE80C0020E80B002011
:10325000F40C0020040D0020F00C0020EC0B0020EA
:1032600004ED00E080B584B000AF786002F0A4FD0A
:103270007B68002B02D13B4B1B6800E07B68FB6046
:10328000FB6804331846FDF7CDFB0346002B15D130
:10329000FB68DA6A344913469B0013449B000B44D5
:1032A0001B68002B0AD1FB68DB6A012202FA03F3D8
:1032B000DA432E4B1B6813402C4A1360FB689B6A51
:1032C000002B04D0FB6818331846FDF7ABFB284BE6
:1032D0001B680133264A1360224B1B68FA689A4226
:1032E0000BD1FB68043319462248FDF73EFB224B05
:1032F0001B680133204A136006E0204B1B68013B2A
:103300001E4A136001F036FC02F086FD154B1B6867
:10331000FA689A4202D0F86801F01CFC184B1B684E
:10332000002B1BD00F4B1B68FA689A4216D1154B25
:103330001B68002B0AD04FF0500383F31188BFF3B2
:103340006F8FBFF34F8FBB6000BFFEE70E4B4FF098
:1033500080521A60BFF34F8FBFF36F8F00BF1037DB
:10336000BD4680BDE80B0020EC0B0020F00C0020D7
:10337000040D0020BC0C0020D00C0020E80C002024
:10338000F40C0020100D002004ED00E080B584B0A6
:1033900000AF78600023FB607B68002B17D0134BD5
:1033A0001B68002B0AD04FF0500383F31188BFF342
:1033B0006F8FBFF34F8FBB6000BFFEE700F006FCCE
:1033C0000021786802F034FB00F00EFCF860FB6826
:1033D000002B07D1064B4FF080521A60BFF34F8F7E
:1033E000BFF36F8F00BF1037BD4680BD100D0020AA
:1033F00004ED00E080B58AB000AF78607B68FB61C7
:10340000FB69002B0AD14FF0500383F31188BFF3FF
:103410006F8FBFF34F8FFB6000BFFEE72D4B1B6824
:10342000FA699A4203D1002387F827304BE002F073
:10343000C3FCFB695B69BB61274B1B687B61274B46
:103440001B683B6102F0E8FCBA697B699A4203D0D1
:10345000BA693B699A4203D1022387F8273032E0E8
:10346000BB691F4A934220D1FB699B6A002B18D18C
:10347000032387F8273000233B620EE0FA693B6A9A
:10348000134458331B78DBB2012B03D1022387F896
:10349000273018E03B6A01333B623B6A002BEDDDCD
:1034A00011E0022387F827300DE0BB690D4A9342F3
:1034B00002D0BB69002B03D1042387F8273002E038
:1034C000012387F8273097F8273018462837BD465C
:1034D00080BD00BFE80B0020A00C0020A40C002041
:1034E000D40C0020BC0C002080B584B000AF786004
:1034F00002F062FC7B68002B02D1074B1B6800E0E6
:103500007B68FB60FB68DB6ABB6002F085FCBB6824
:1035100018461037BD4680BDE80B002080B588B046
:1035200000AF786002F029FDEFF311824FF05003F5
:1035300083F31188BFF36F8FBFF34F8F3A61FB6046
:103540003B69FB617B68002B02D1094B1B6800E0E3
:103550007B68BB61BB69DB6A7B61FB69BB60BB6885
:1035600083F3118800BF7B6918462037BD4680BDB4
:10357000E80B002080B588B000AF78603960002388
:10358000FB613B68062B0AD94FF0500383F3118887
:10359000BFF36F8FBFF34F8FBB6000BFFEE73B6889
:1035A000062B01D906233B6002F006FC7B68002B4A
:1035B00002D1554B1B6800E07B68BB61BB69DB6CCB
:1035C0007B617A693B689A4200F098803A687B692F
:1035D0009A420DD94C4B1B68BA699A420FD04A4B9C
:1035E0001B68DB6A3A689A4209D30123FB6106E053
:1035F000454B1B68BA699A4201D10123FB61BB6943
:10360000DB6A3B61BB69DA6CBB69DB6A9A4202D157
:10361000BB693A68DA62BB693A68DA64BB699B697C
:10362000002B04DB3B68C3F10702BB699A61BB69ED
:1036300059693A6913469B0013449B00334A13446B
:10364000994250D1BB6904331846FDF7EBF90346A4
:10365000002B09D101223B6902FA03F3DA432C4B18
:103660001B6813402A4A1360BB69DB6A01229A4037
:10367000274B1B681343264A1360BB69DA6A234948
:1036800013469B0013449B000B4404331B68FB60F0
:10369000BB69FA689A60FB689A68BB69DA60FB6884
:1036A0009B68BA6904325A60BB691A1DFB689A604C
:1036B000BB69DA6A13469B0013449B00134A1A4401
:1036C000BB695A61BB69DA6A104913469B0013440F
:1036D0009B000B441B68591C0C4813469B00134469
:1036E0009B0003441960FB69002B07D0094B4FF086
:1036F00080521A60BFF34F8FBFF36F8F02F08CFBC5
:1037000000BF2037BD4680BDE80B0020EC0B002039
:10371000F00C002004ED00E080B586B000AF7860CA
:1037200002F04AFB7B68002B02D1434B1B6800E090
:103730007B683B613B6904331846FDF773F9034628
:10374000002B15D13B69DA6A3C4913469B001344B0
:103750009B000B441B68002B0AD13B69DB6A0122EA
:1037600002FA03F3DA43364B1B681340344A136002
:103770003B699B6A002B04D03B6918331846FDF760
:1037800051F93B69043319462E48FDF7EEF8002342
:103790007B6110E03A697B69134458331B78DBB2D4
:1037A000012B05D13A697B691344583300221A7002
:1037B0007B6901337B617B69002BEBDD02F02CFB25
:1037C000214B1B68002B05D002F0F6FA01F0D2F96C
:1037D00002F022FB184B1B683A699A4227D11A4B18
:1037E0001B68002B17D0194B1B68002B0AD04FF019
:1037F000500383F31188BFF36F8FBFF34F8FFB60CC
:1038000000BFFEE7124B4FF080521A60BFF34F8F9C
:10381000BFF36F8F0BE00B4B1A680E4B1B689A427D
:1038200003D1054B00221A6001E000F0F7FC00BF55
:103830001837BD4680BD00BFE80B0020EC0B002010
:10384000F00C0020D40C0020F40C0020100D0020FF
:1038500004ED00E0E80C002080B487B000AF786091
:1038600000237B617B683B617B68002B0AD14FF0B2
:10387000500383F31188BFF36F8FBFF34F8FFB604B
:1038800000BFFEE73B695B690A4A93420AD13B6984
:103890009B6A094A934205D03B699B6A002B01D180
:1038A00001237B617B6918461C37BD465DF8047BAC
:1038B000704700BFD40C0020A80C002080B586B053
:1038C00000AF78607B687B617B68002B0AD14FF08A
:1038D000500383F31188BFF36F8FBFF34F8FFB60EB
:1038E00000BFFEE7344B1B687A699A425FD07B6960
:1038F000002B5CD002F060FA7869FFF7ADFF034659
:10390000002B52D07B6904331846FDF78BF87B6996
:10391000DB6A01229A40294B1B681343274A136034
:103920007B69DA6A264913469B0013449B000B44CB
:1039300004331B683B617B693A699A603B699A680A
:103940007B69DA603B699B687A6904325A607B69FB
:103950001A1D3B699A607B69DA6A13469B0013441F
:103960009B00174A1A447B695A617B69DA6A1449D9
:1039700013469B0013449B000B441B68591C1048C2
:1039800013469B0013449B00034419607B69DA6A69
:10399000094B1B68DB6A9A4207D30A4B4FF08052EF
:1039A0001A60BFF34F8FBFF36F8F02F035FA00BF7D
:1039B0001837BD4680BD00BFE80B0020F00C00208A
:1039C000EC0B002004ED00E080B58AB000AF786019
:1039D00000237B627B683B627B68002B0AD14FF03F
:1039E000500383F31188BFF36F8FBFF34F8F7B6159
:1039F00000BFFEE702F0C1FAEFF311824FF050036F
:103A000083F31188BFF36F8FBFF34F8F3A61FB6071
:103A10003B69FB61386AFFF71FFF0346002B5AD052
:103A2000324B1B68002B50D13B6ADA6A304B1B6863
:103A3000DB6A9A4204D301237B622E4B01221A6077
:103A40003B6A04331846FCF7EDFF3B6ADB6A012250
:103A50009A40294B1B681343274A13603B6ADA6A72
:103A6000264913469B0013449B000B4404331B68F8
:103A7000BB613B6ABA699A60BB699A683B6ADA6063
:103A8000BB699B683A6A04325A603B6A1A1DBB697B
:103A90009A603B6ADA6A13469B0013449B00174AFC
:103AA0001A443B6A5A613B6ADA6A144913469B001E
:103AB00013449B000B441B68591C104813469B0081
:103AC00013449B000344196005E03B6A1833194610
:103AD0000B48FCF74AFFFB69BB60BB6883F31188A6
:103AE00000BF7B6A18462837BD4680BD100D0020F8
:103AF000E80B0020FC0C0020F00C0020EC0B002058
:103B0000A80C002080B586B002AF1D4B01930023A6
:103B10000093002380221B491B48FFF739FAF86005
:103B2000FB68012B16D14FF0500383F31188BFF3CC
:103B30006F8FBFF34F8FBB6000BF144B4FF0FF324E
:103B40001A60134B01221A60124B00221A6002F015
:103B500076F80EE0FB68B3F1FF3F0AD14FF0500357
:103B600083F31188BFF36F8FBFF34F8F7B6000BF6C
:103B7000FEE7094B1B6800BF1037BD4680BD00BF84
:103B80000C0D0020FCC00308A3480008080D00200D
:103B9000F40C0020EC0C00200400002080B582B062
:103BA00000AF4FF0500383F31188BFF36F8FBFF363
:103BB0004F8F7B6000BF044B00221A6002F0E0F8D8
:103BC00000BF0837BD4680BDF40C002080B400AFB4
:103BD000044B1B680133034A136000BFBD465DF808
:103BE000047B7047100D002080B588B000AF002323
:103BF000FB610023BB61714B1B68002B0AD14FF0A6
:103C0000500383F31188BFF36F8FBFF34F8F7B6037
:103C100000BFFEE702F0D0F8684B1B68013B674A23
:103C20001360664B1B68002B40F0C080644B1B6820
:103C3000002B00F0BB808AE0624BDB68DB68FB6135
:103C4000FB699B6A3B61FB69DB69FA69126A9A60EE
:103C5000FB691B6AFA69D2695A603B695A68FB6959
:103C600018339A4203D1FB691A6A3B695A60FB69AF
:103C700000229A623B691B685A1E3B691A60FB6905
:103C80005B69FB60FB699B68FA69D2689A60FB69B3
:103C9000DB68FA6992685A60FB685A68FB6904330A
:103CA0009A4203D1FB69DA68FB685A60FB6900221B
:103CB0005A61FB681B685A1EFB681A60FB69DB6A65
:103CC00001229A40404B1B6813433F4A1360FB6933
:103CD000DA6A3E4913469B0013449B000B440433AD
:103CE0001B68BB60FB69BA689A60BB689A68FB692D
:103CF000DA60BB689B68FA6904325A60FB691A1D76
:103D0000BB689A60FB69DA6A13469B0013449B0008
:103D10002E4A1A44FB695A61FB69DA6A2B49134639
:103D20009B0013449B000B441B68591C27481346F7
:103D30009B0013449B0003441960FB69DA6A244B1F
:103D40001B68DB6A9A4202D3224B01221A601D4B88
:103D50001B68002B7FF470AFFB69002B01D000F0D3
:103D600009FF1D4B1B687B617B69002B10D000F0A5
:103D70003FF90346002B02D0164B01221A607B69E3
:103D8000013B7B617B69002BF1D1134B00221A6050
:103D9000104B1B68002B09D00123BB610F4B4FF068
:103DA00080521A60BFF34F8FBFF36F8F02F034F869
:103DB000BB6918462037BD4680BD00BF100D0020EE
:103DC000E80C0020A80C0020F00C0020EC0B0020D8
:103DD000E80B0020FC0C0020F80C002004ED00E0B3
:103DE00080B483B000AF054B1B687B607B681846CE
:103DF0000C37BD465DF8047B704700BFEC0C00201B
:103E000080B582B000AF02F0B8F800237B60044BAD
:103E10001B683B603B6818460837BD4680BD00BF45
:103E2000EC0C002080B400AF034B1B681846BD4665
:103E30005DF8047B704700BFE80C002080B485B0BB
:103E400000AF78607B68002B02D10D4B1B6800E04F
:103E50007B68FB60FB68002B0AD14FF0500383F3B3
:103E60001188BFF36F8FBFF34F8FBB6000BFFEE7BA
:103E7000FB68343318461437BD465DF8047B704741
:103E8000E80B002080B586B000AFF860B9607A60BA
:103E900000237B6107233B61FFF798FE3A4B1B68C9
:103EA000BA689A4268D33B69013B3B617A69134621
:103EB000DB0013449B001A46FB6898183A691346C6
:103EC0009B0013449B00314A13440122194600F021
:103ED000D3FD02467B6913447B613B69002BE2D131
:103EE0007A691346DB0013449B001A46FB681344AF
:103EF000274A11680222184600F0BEFD02467B697F
:103F000013447B617A691346DB0013449B001A4615
:103F1000FB6813441F4A11680222184600F0ACFDEA
:103F200002467B6913447B617A691346DB001344C4
:103F30009B001A46FB68134404221749184600F0F8
:103F40009BFD02467B6913447B617A691346DB0063
:103F500013449B001A46FB68134403220F4918467A
:103F600000F08AFD02467B6913447B617B68002B6D
:103F700002D07B6800221A60FFF736FE7B69184684
:103F80001837BD4680BD00BFE80C0020EC0B0020B8
:103F9000A00C0020A40C0020BC0C0020D40C00209D
:103FA00080B584B000AF78600F4B1B68002B0AD03F
:103FB0004FF0500383F31188BFF36F8FBFF34F8F20
:103FC000BB6000BFFEE7FFF701FE084B1A687B6885
:103FD0001344064A1360FFF707FEF860FB681846B3
:103FE0001037BD4680BD00BF100D0020F80C00202A
:103FF00080B58AB000AF00237B627D4B1B68002B2D
:1040000040F0EC807B4B1B6801333B62794A3B6A92
:1040100013603B6A002B20D1774B1B681B68002B79
:104020000AD04FF0500383F31188BFF36F8FBFF3B3
:104030004F8F7B6000BFFEE76F4B1B68FB616F4BD0
:104040001B686D4A13606D4AFB6913606C4B1B68FB
:1040500001336B4A136000F08DFD6A4B1B683A6AAE
:104060009A42C0F0A680644B1B681B68002B04D1E9
:10407000644B4FF0FF321A609BE05F4B1B68DB68BC
:10408000DB68BB61BB695B687B613A6A7B699A42AA
:1040900003D25C4A7B6913608BE0BB695B693B615F
:1040A000BB699B68BA69D2689A60BB69DB68BA6908
:1040B00092685A603B695A68BB6904339A4203D1DB
:1040C000BB69DA683B695A60BB6900225A613B6987
:1040D0001B685A1E3B691A60BB699B6A002B1ED085
:1040E000BB699B6AFB60BB69DB69BA69126A9A604B
:1040F000BB691B6ABA69D2695A60FB685A68BB69B6
:1041000018339A4203D1BB691A6AFB685A60BB69CB
:1041100000229A62FB681B685A1EFB681A60BB6922
:10412000DB6A01229A40384B1B681343364A1360FE
:10413000BB69DA6A354913469B0013449B000B4464
:1041400004331B68BB60BB69BA689A60BB689A6835
:10415000BB69DA60BB689B68BA6904325A60BB69A4
:104160001A1DBB689A60BB69DA6A13469B00134448
:104170009B00264A1A44BB695A61BB69DA6A234923
:1041800013469B0013449B000B441B68591C1F489B
:1041900013469B0013449B0003441960BB69DA6A11
:1041A0001B4B1B68DB6A9A42FFF45DAF01237B6205
:1041B00059E7174B1B68DA6A144913469B001344EE
:1041C0009B000B441B68012B01D901237B62114B1F
:1041D0001B68002B07D001237B6204E00E4B1B6899
:1041E00001330D4A13607B6A18462837BD4680BDEF
:1041F000100D0020EC0C0020A00C0020A40C0020CE
:10420000000D0020080D0020F00C0020EC0B002019
:10421000E80B0020FC0C0020F80C002080B487B0D4
:1042200000AF274B1B68002B03D0264B01221A60DE
:104230003FE0244B00221A60234B1B68FB60FB68A5
:10424000B3FA83F3FB72FB7AC3F11F037B611F494F
:104250007A6913469B0013449B000B441B68002B98
:104260000AD14FF0500383F31188BFF36F8FBFF370
:104270004F8F7B6000BFFEE77A6913469B001344B3
:104280009B00124A13443B613B695B685A683B6977
:104290005A603B695A683B6908339A4204D13B69CA
:1042A0005B685A683B695A603B695B68DB68084A2F
:1042B000136000BF1C37BD465DF8047B704700BF2C
:1042C000100D0020FC0C0020F00C0020EC0B002056
:1042D000E80B002080B584B000AF786039607B685F
:1042E000002B0AD14FF0500383F31188BFF36F8F77
:1042F000BFF34F8FFB6000BFFEE7074B1B6818330F
:1043000019467868FCF755FB0121386801F090FBED
:1043100000BF1037BD4680BDE80B002080B588B0D7
:1043200000AFF860B9607A60FB68002B0AD14FF0EB
:10433000500383F31188BFF36F8FBFF34F8FBB61BF
:1043400000BFFEE71E4B1B68002B0AD14FF0500345
:1043500083F31188BFF36F8FBFF34F8F7B6100BF73
:10436000FEE7184B1B68BA6842F000429A61FB688E
:104370005B68FB61134B1B68FA69DA61114B1B68C0
:10438000FA6992681A620F4B1A68FB699B681832C7
:104390005A600C4B1B6803F11802FB699A60094BC9
:1043A0001B68FA689A62FB681B685A1CFB681A60F3
:1043B0000121786801F03CFB00BF2037BD4680BD7D
:1043C000100D0020E80B002080B48BB000AF7860A7
:1043D0007B68DB68DB683B623B6A002B0AD14FF0ED
:1043E000500383F31188BFF36F8FBFF34F8FFB60D0
:1043F00000BFFEE73B6A9B6AFB613B6ADB693A6A86
:10440000126A9A603B6A1B6A3A6AD2695A60FB690F
:104410005A683B6A18339A4203D13B6A1A6AFB69AD
:104420005A603B6A00229A62FB691B685A1EFB694C
:104430001A604A4B1B68002B5ED13B6A5B697B614B
:104440003B6A9B683A6AD2689A603B6ADB683A6A60
:1044500092685A607B695A683B6A04339A4203D176
:104460003B6ADA687B695A603B6A00225A617B6961
:104470001B685A1E7B691A603B6ADB6A01229A40FC
:10448000374B1B681343364A13603B6ADA6A354977
:1044900013469B0013449B000B4404331B683B6191
:1044A0003B6A3A699A603B699A683B6ADA603B69A1
:1044B0009B683A6A04325A603B6A1A1D3B699A60EB
:1044C0003B6ADA6A13469B0013449B00254A1A4450
:1044D0003B6A5A613B6ADA6A224913469B001344DD
:1044E0009B000B441B68591C1E4813469B00134439
:1044F0009B00034419601BE01B4B5B68BB613B6A7C
:10450000BA69DA61BB699A683B6A1A62BB699B68DF
:104510003A6A18325A603B6A03F11802BB699A6022
:104520003B6A114A9A62104B1B6801330E4A1360B2
:104530003B6ADA6A0D4B1B68DB6A9A4205D9012394
:104540007B620B4B01221A6001E000237B627B6AD5
:1045500018462C37BD465DF8047B7047100D0020CF
:10456000F00C0020EC0B0020A80C0020E80B002031
:10457000FC0C002080B489B000AF78603960584BE3
:104580001B68002B0AD14FF0500383F31188BFF34F
:104590006F8FBFF34F8FFB6000BFFEE73B6843F0B8
:1045A00000427B681A607B68DB68FB61FB69002B5B
:1045B0000AD14FF0500383F31188BFF36F8FBFF31D
:1045C0004F8FBB6000BFFEE77B681B69BB617B68E8
:1045D0005B687A6892689A607B689B687A685268C0
:1045E0005A60BB695B687A689A4203D17B689A68B3
:1045F000BB695A607B6800221A61BB691B685A1E3E
:10460000BB691A60FB695B697B61FB699B68FA693E
:10461000D2689A60FB69DB68FA6992685A607B69C4
:104620005A68FB6904339A4203D1FB69DA687B69F3
:104630005A60FB6900225A617B691B685A1E7B69BC
:104640001A60FB69DB6A01229A40264B1B68134300
:10465000244A1360FB69DA6A234913469B0013441A
:104660009B000B4404331B683B61FB693A699A6009
:104670003B699A68FB69DA603B699B68FA690432B6
:104680005A60FB691A1D3B699A60FB69DA6A134636
:104690009B0013449B00144A1A44FB695A61FB694E
:1046A000DA6A114913469B0013449B000B441B68B4
:1046B000591C0D4813469B0013449B00034419608A
:1046C000FB69DA6A094B1B68DB6A9A4202D9084B1C
:1046D00001221A6000BF2437BD465DF8047B704795
:1046E000100D0020F00C0020EC0B0020E80B002047
:1046F000FC0C002080B584B000AF78607B68002B94
:104700000AD14FF0500383F31188BFF36F8FBFF3CB
:104710004F8FFB6000BFFEE701F04EFB064B1A68AF
:104720007B681A60054B1A687B685A6001F074FB5D
:1047300000BF1037BD4680BD000D0020EC0C0020EE
:1047400080B483B000AF7860064B1A687B681A604B
:10475000054B1A687B685A6000BF0C37BD465DF890
:10476000047B7047000D0020EC0C002080B588B061
:1047700000AF786039607B68002B0AD14FF050039E
:1047800083F31188BFF36F8FBFF34F8F3B6100BF7F
:10479000FEE73B68002B0AD14FF0500383F31188EA
:1047A000BFF36F8FBFF34F8FFB6000BFFEE701F0D9
:1047B00003FB1F4B1B68BB617B685B68BA69D31A3C
:1047C0007B613B681B68B3F1FF3F02D10023FB61B3
:1047D00026E07B681A68174B1B689A420AD07B68F0
:1047E0005B68BA699A4205D30123FB613B680022EA
:1047F0001A6015E03B681B687A699A420BD23B68E5
:104800001A687B69D21A3B681A607868FFF798FFCC
:104810000023FB6104E03B6800221A600123FB6176
:1048200001F0FAFAFB6918462037BD4680BD00BF8B
:10483000EC0C0020000D002080B400AF034B0122DF
:104840001A6000BFBD465DF8047B7047FC0C002079
:1048500080B485B000AF78607B68002B05D07B68A2
:10486000BB60BB689B6CFB6001E00023FB60FB68E6
:1048700018461437BD465DF8047B704780B485B098
:1048800000AF786039607B68002B04D07B68FB60E8
:10489000FB683A689A6400BF1437BD465DF8047B34
:1048A000704780B582B000AF786000F051F8064BD9
:1048B0001B68012BF9D9054B4FF080521A60BFF3EA
:1048C0004F8FBFF36F8FF0E7EC0B002004ED00E09B
:1048D00080B582B000AF00237B600CE07A6813469D
:1048E0009B0013449B00124A13441846FCF710F82F
:1048F0007B6801337B607B68062BEFD90D48FCF7A2
:1049000007F80D48FCF704F80C48FCF701F80C48D0
:10491000FBF7FEFF0B48FBF7FBFF0B4B054A1A604A
:104920000A4B054A1A6000BF0837BD4680BD00BF6C
:10493000EC0B0020780C00208C0C0020A80C002030
:10494000BC0C0020D40C0020A00C0020A40C0020E3
:1049500080B582B000AF19E001F02EFA104BDB6891
:10496000DB687B607B6804331846FCF75BF80D4B13
:104970001B68013B0B4A13600B4B1B68013B0A4A47
:10498000136001F049FA786800F0E4F8064B1B6800
:10499000002BE1D100BF00BF0837BD4680BD00BF7E
:1049A000BC0C0020E80C0020D00C002080B586B0A4
:1049B00000AFF860B9607A60FB70FB68002B02D131
:1049C0002C4B1B6800E0FB687B61BB687A691A604E
:1049D0007B6903F13402BB685A607B69DA6ABB68A1
:1049E0001A617B691A6BBB68DA617B695A6CBB68B8
:1049F0009A607B69DA6CBB685A61BB6800229A6175
:104A0000FB78052B1AD01B4B1B687A699A4203D19D
:104A1000BB6800221A7318E0BB68FA781A73FB7837
:104A2000032B12D1FFF7D2F87B699B6A002B02D0CF
:104A3000BB6802221A73FFF7D7F806E07869FEF721
:104A4000D9FC03461A46BB681A737B68002B09D051
:104A50007B691B6B184600F061F803461A46BB6879
:104A60001A8402E0BB6800221A8400BF1837BD46D2
:104A700080BD00BFE80B002080B58AB000AFF860B1
:104A8000B9601346FB7100237B62BB681B68002B77
:104A90003FD0BB683B623B6A5B685A683B6A5A60BE
:104AA0003B6A5A683B6A08339A4204D13B6A5B68A6
:104AB0005A683B6A5A603B6A5B68DB68FB61BB68AB
:104AC000BB61BB695B685A68BB695A60BB695A685D
:104AD000BB6908339A4204D1BB695B685A68BB69F9
:104AE0005A60BB695B68DB687B617A6A1346DB00EE
:104AF00013449B001A46FB689918FB7901227869D8
:104B0000FFF754FF7B6A01337B627A69FB699A4243
:104B1000D5D17B6A18462837BD4680BD80B485B0A4
:104B200000AF78600023FB6005E07B6801337B60A9
:104B3000FB680133FB607B681B78A52BF5D0FB6815
:104B40009B08FB60FB689BB218461437BD465DF8B6
:104B5000047B704780B582B000AF78607B681B6BC8
:104B6000184603F059FB786803F056FB00BF08377E
:104B7000BD4680BD80B400AF0A4B1B681B68002B8C
:104B800004D1094B4FF0FF321A6005E0054B1B685A
:104B9000DB681B68044A136000BFBD465DF8047BF8
:104BA000704700BFA00C0020080D002080B483B027
:104BB00000AF054B1B687B607B6818460C37BD4611
:104BC0005DF8047B704700BFE80B002080B483B021
:104BD00000AF0B4B1B68002B02D101237B6008E068
:104BE000084B1B68002B02D102237B6001E00023ED
:104BF0007B607B6818460C37BD465DF8047B7047C8
:104C0000F40C0020100D002080B586B000AF786055
:104C10007B683B6100237B617B68002B00F0878011
:104C20003B69DA6A444B1B68DB6A9A4276D23B697D
:104C30009B69002B06DB404B1B68DB6AC3F1070254
:104C40003B699A613B6959693B69DA6A13469B0083
:104C500013449B00394A1344994257D13B690433AA
:104C60001846FBF7DFFE0346002B0AD13B69DB6ADF
:104C7000012202FA03F3DA43314B1B681340304A36
:104C800013602D4B1B68DA6A3B69DA623B69DB6AA9
:104C900001229A402A4B1B681343294A13603B693F
:104CA000DA6A264913469B0013449B000B440433E5
:104CB0001B68FB603B69FA689A60FB689A683B690D
:104CC000DA60FB689B683A6904325A603B691A1DD6
:104CD000FB689A603B69DA6A13469B0013449B00A9
:104CE000164A1A443B695A613B69DA6A134913460A
:104CF0009B0013449B000B441B68591C0F48134630
:104D00009B0013449B000344196004E00A4B1B689A
:104D1000DA6A3B69DA6201237B6108E03B69DA6C9D
:104D2000054B1B68DB6A9A4201D201237B617B69D8
:104D300018461837BD4680BDE80B0020EC0B00205C
:104D4000F00C002080B588B000AF78607B68BB6154
:104D50000023FB617B68002B00F08C80484B1B68B4
:104D6000BA699A420AD04FF0500383F31188BFF317
:104D70006F8FBFF34F8F3B6100BFFEE7BB691B6DB9
:104D8000002B0AD14FF0500383F31188BFF36F8FCC
:104D9000BFF34F8FFB6000BFFEE7BB691B6D5A1E60
:104DA000BB691A65BB69DA6ABB69DB6C9A4261D080
:104DB000BB691B6D002B5DD1BB6904331846FBF743
:104DC00031FE0346002B0AD1BB69DB6A012202FADD
:104DD00003F3DA432B4B1B6813402A4A1360BB6969
:104DE000DA6CBB69DA62BB69DB6AC3F10702BB69D3
:104DF0009A61BB69DB6A01229A40224B1B6813430C
:104E0000204A1360BB69DA6A1F4913469B001344AA
:104E10009B000B4404331B687B61BB697A699A6011
:104E20007B699A68BB69DA607B699B68BA690432FE
:104E30005A60BB691A1D7B699A60BB69DA6A1346BE
:104E40009B0013449B00104A1A44BB695A61BB691A
:104E5000DA6A0D4913469B0013449B000B441B6800
:104E6000591C094813469B0013449B0003441960D6
:104E70000123FB61FB6918462037BD4680BD00BF9A
:104E8000E80B0020F00C0020EC0B002080B58AB06D
:104E900000AF786039607B683B620123FB617B680F
:104EA000002B00F0A1803B6A1B6D002B0AD14FF054
:104EB000500383F31188BFF36F8FBFF34F8F3B61B4
:104EC00000BFFEE73B6ADB6C3A689A4202D93B6856
:104ED0007B6202E03B6ADB6C7B623B6ADB6A7A6A7C
:104EE0009A4200F081803B6A1B6DFA699A427BD13D
:104EF0003F4B1B683A6A9A420AD14FF0500383F342
:104F00001188BFF36F8FBFF34F8FFB6000BFFEE7C9
:104F10003B6ADB6ABB613B6A7A6ADA623B6A9B691D
:104F2000002B04DB7B6AC3F107023B6A9A613B6A90
:104F30005969BA6913469B0013449B002D4A1344D8
:104F4000994251D13B6A04331846FBF76BFD034687
:104F5000002B0AD13B6ADB6A012202FA03F3DA432F
:104F6000254B1B681340244A13603B6ADB6A01220D
:104F70009A40214B1B6813431F4A13603B6ADA6A4D
:104F80001C4913469B0013449B000B4404331B68CD
:104F90007B613B6A7A699A607B699A683B6ADA60EE
:104FA0007B699B683A6A04325A603B6A1A1D7B69C6
:104FB0009A603B6ADA6A13469B0013449B000D4AD1
:104FC0001A443B6A5A613B6ADA6A0A4913469B00F3
:104FD00013449B000B441B68591C064813469B0056
:104FE00013449B000344196000BF2837BD4680BDB1
:104FF000E80B0020EC0B0020F00C002080B483B004
:1050000000AF094B1B689B697B60074B1B68DA6A22
:10501000054B1B68C2F107029A617B6818460C3782
:10502000BD465DF8047B7047E80B002080B400AFFC
:10503000074B1B68002B04D0054B1B681A6D01320F
:105040001A65034B1B681846BD465DF8047B704724
:10505000E80B002080B586B000AFF860B9607A60D8
:10506000FB68002B0AD04FF0500383F31188BFF385
:105070006F8FBFF34F8F3B6100BFFEE700F09CFED8
:10508000284B1A68FB6814339B0013445B68002BA1
:1050900015D1244B1A68FB681344583301221A7047
:1050A0007B68002B0BD00121786800F0C1FC1E4BFF
:1050B0004FF080521A60BFF34F8FBFF36F8F00F035
:1050C000ABFE00F079FE174B1A68FB6814339B00A7
:1050D00013445B687B617B69002B14D0BB68002B99
:1050E00008D0104B1A68FB6814339B00134400224D
:1050F0005A6008E00B4B19687B695A1EFB68143331
:105100009B000B445A60074B1A68FB6813445833E2
:1051100000221A7000F080FE7B6918461837BD46E1
:1051200080BD00BFE80B002004ED00E080B586B034
:1051300000AFF860B9607A603B60FB68002B0AD072
:105140004FF0500383F31188BFF36F8FBFF34F8F7E
:105150003B6100BFFEE700F02FFE344B1A68FB688E
:10516000134458331B78DBB2022B24D02F4B1A6820
:10517000FB6814339B0013445968BB68DB43194038
:10518000FB6814339B0013445960284B1A68FB6872
:105190001344583301221A703B6A002B0BD00121B3
:1051A000386A00F045FC224B4FF080521A60BFF382
:1051B0004F8FBFF36F8F00F02FFE00F0FDFD3B68B7
:1051C000002B08D0194B1A68FB6814339B0013445A
:1051D0005A683B681A60154B1A68FB6813445833C9
:1051E0001B78DBB2022B02D000237B6110E00F4B57
:1051F0001A68FB6814339B00134459687B68DB43CF
:105200001940FB6814339B001344596001237B61F0
:10521000064B1A68FB681344583300221A7000F0DA
:10522000FBFD7B6918461837BD4680BDE80B0020A2
:1052300004ED00E080B58EB000AFF860B9607A6030
:10524000FB7001237B63BB68002B0AD04FF0500337
:1052500083F31188BFF36F8FBFF34F8F3B6200BFA3
:10526000FEE7FB68002B0AD14FF0500383F311884F
:10527000BFF36F8FBFF34F8FFB6100BFFEE7FB688B
:105280003B6300F099FD3B6C002B07D03A6BBB6889
:1052900014339B0013445A683B6C1A603A6BBB682A
:1052A000134458331B7887F82F303A6BBB6813448C
:1052B000583302221A70FB78042B41D801A252F80D
:1052C00023F000BF5F530008D9520008F7520008CE
:1052D00013530008235300083A6BBB6814339B0038
:1052E00013445A687B681A43396BBB6814339B00BC
:1052F0000B445A6036E03A6BBB6814339B0013448E
:105300005B685A1C396BBB6814339B000B445A60B2
:1053100028E03A6BBB6814339B0013447A685A60E8
:1053200020E097F82F30022B07D03A6BBB6814337C
:105330009B0013447A685A6014E000237B6311E0F9
:105340004C4B1B68002B0CD04FF0500383F311889B
:10535000BFF36F8FBFF34F8FBB6100BFFEE700BF8E
:1053600000E000BF97F82F30012B7BD13B6B5B69CE
:10537000BB623B6B9B683A6BD2689A603B6BDB68A5
:105380003A6B92685A60BB6A5A683B6B04339A4224
:1053900003D13B6BDA68BB6A5A603B6B00225A61EF
:1053A000BB6A1B685A1EBB6A1A603B6BDB6A012230
:1053B0009A40314B1B6813432F4A13603B6BDA6AE8
:1053C0002E4913469B0013449B000B4404331B6877
:1053D0007B623B6B7A6A9A607B6A9A683B6BDA60A5
:1053E0007B6A9B683A6B04325A603B6B1A1D7B6A7E
:1053F0009A603B6BDA6A13469B0013449B001F4A7A
:105400001A443B6B5A613B6BDA6A1C4913469B009A
:1054100013449B000B441B68591C184813469B00FF
:1054200013449B00034419603B6B9B6A002B0AD01A
:105430004FF0500383F31188BFF36F8FBFF34F8F8B
:105440007B6100BFFEE73B6BDA6A0D4B1B68DB6AD2
:105450009A4207D90B4B4FF080521A60BFF34F8F1F
:10546000BFF36F8F00F0D8FC7B6B18463837BD4612
:1054700080BD00BFEC0C0020F00C0020EC0B0020E5
:10548000E80B002004ED00E080B592B000AFF860BA
:10549000B9607A60FB7001237B64FB68002B0AD142
:1054A0004FF0500383F31188BFF36F8FBFF34F8F1B
:1054B000BB6200BFFEE7BB68002B0AD04FF0500371
:1054C00083F31188BFF36F8FBFF34F8F7B6200BFF1
:1054D000FEE700F052FDFB683B64EFF311824FF0F2
:1054E000500383F31188BFF36F8FBFF34F8F3A627E
:1054F000FB613B6AFB633B6D002B07D03A6CBB68DA
:1055000014339B0013445A683B6D1A603A6CBB68B5
:10551000134458331B7887F83B303A6CBB6813440C
:10552000583302221A70FB78042B41D801A252F89A
:1055300023F000BFCF550008495500086755000803
:1055400083550008935500083A6CBB6814339B00E0
:1055500013445A687B681A43396CBB6814339B0048
:105560000B445A6036E03A6CBB6814339B0013441A
:105570005B685A1C396CBB6814339B000B445A603F
:1055800028E03A6CBB6814339B0013447A685A6075
:1055900020E097F83B30022B07D03A6CBB681433FD
:1055A0009B0013447A685A6014E000237B6411E086
:1055B0005F4B1B68002B0CD04FF0500383F3118816
:1055C000BFF36F8FBFF34F8FBB6100BFFEE700BF1C
:1055D00000E000BF97F83B30012B40F09E803B6C11
:1055E0009B6A002B0AD04FF0500383F31188BFF35E
:1055F0006F8FBFF34F8F7B6100BFFEE74D4B1B6882
:10560000002B5ED13B6C5B693B633B6C9B683A6CE7
:10561000D2689A603B6CDB683A6C92685A603B6B6C
:105620005A683B6C04339A4203D13B6CDA683B6B9B
:105630005A603B6C00225A613B6B1B685A1E3B6BE5
:105640001A603B6CDB6A01229A403B4B1B68134398
:10565000394A13603B6CDA6A384913469B0013449D
:105660009B000B4404331B68FB623B6CFA6A9A6034
:10567000FB6A9A683B6CDA60FB6A9B683A6C04329E
:105680005A603B6C1A1DFB6A9A603B6CDA6A1346DF
:105690009B0013449B00294A1A443B6C5A613B6CA3
:1056A000DA6A264913469B0013449B000B441B688F
:1056B000591C224813469B0013449B000344196065
:1056C0001BE01F4B5B687B633B6C7A6BDA617B6B27
:1056D0009A683B6C1A627B6B9B683A6C18325A6012
:1056E0003B6C03F118027B6B9A603B6C144A9A6224
:1056F000134B1B680133124A13603B6CDA6A114B7F
:105700001B68DB6A9A4208D97B6D002B02D07B6D47
:1057100001221A600C4B01221A60FB6B3B613B6952
:1057200083F3118800BF7B6C18464837BD4680BDA7
:10573000EC0C0020100D0020F00C0020EC0B0020E1
:10574000A80C0020E80B0020FC0C002080B590B0D5
:1057500000AFF860B9607A60FB68002B0AD14FF0A7
:10576000500383F31188BFF36F8FBFF34F8F7B62BA
:1057700000BFFEE7BB68002B0AD04FF0500383F355
:105780001188BFF36F8FBFF34F8F3B6200BFFEE7FF
:1057900000F0F3FBFB68FB63EFF311824FF0500363
:1057A00083F31188BFF36F8FBFF34F8FFA61BB6133
:1057B000FB69BB63FA6BBB68134458331B7887F8EB
:1057C0003730FA6BBB681344583302221A70FA6BF5
:1057D000BB6814339B0013445B685A1CF96BBB68AD
:1057E00014339B000B445A6097F83730012B40F07C
:1057F0009E80FB6B9B6A002B0AD04FF0500383F313
:105800001188BFF36F8FBFF34F8F7B6100BFFEE73F
:105810004C4B1B68002B5ED1FB6B5B69FB62FB6B27
:105820009B68FA6BD2689A60FB6BDB68FA6B9268D4
:105830005A60FB6A5A68FB6B04339A4203D1FB6BD4
:10584000DA68FB6A5A60FB6B00225A61FB6A1B68CC
:105850005A1EFB6A1A60FB6BDB6A01229A403A4BC4
:105860001B681343384A1360FB6BDA6A37491346E7
:105870009B0013449B000B4404331B68BB62FB6B0F
:10588000BA6A9A60BB6A9A68FB6BDA60BB6A9B680B
:10589000FA6B04325A60FB6B1A1DBB6A9A60FB6B91
:1058A000DA6A13469B0013449B00284A1A44FB6B98
:1058B0005A61FB6BDA6A254913469B0013449B002F
:1058C0000B441B68591C214813469B0013449B0042
:1058D000034419601BE01E4B5B683B63FB6B3A6B38
:1058E000DA613B6B9A68FB6B1A623B6B9B68FA6BE5
:1058F00018325A60FB6B03F118023B6B9A60FB6B2A
:10590000134A9A62124B1B680133114A1360FB6BF6
:10591000DA6A104B1B68DB6A9A4208D97B68002B55
:1059200002D07B6801221A600B4B01221A60BB6B0C
:105930003B613B6983F3118800BF00BF4037BD4620
:1059400080BD00BF100D0020F00C0020EC0B0020EB
:10595000A80C0020E80B0020FC0C002080B586B0CD
:1059600000AF786039603B68002B0AD04FF05003DD
:1059700083F31188BFF36F8FBFF34F8FFB6000BFBE
:10598000FEE77B68002B02D1104B1B6800E07B68B0
:105990003B6100F011FA3A693B68134458331B78B5
:1059A000DBB2022B08D13A693B681344583300221A
:1059B0001A7001237B6101E000237B6100F02CFA67
:1059C0007B6918461837BD4680BD00BFE80B002034
:1059D00080B586B000AFF860B9607A60FB68002BD4
:1059E00002D1124B1B6800E0FB687B6100F0E4F918
:1059F0007A69BB6814339B0013445B683B617A6926
:105A0000BB6814339B0013445A687B68DB431A401D
:105A10007969BB6814339B000B445A6000F0FCF9B1
:105A20003B6918461837BD4680BD00BFE80B002013
:105A300080B586B000AF78603960364B1B687B61FB
:105A4000354B1B6804331846FAF7ECFF0346002B6E
:105A50000BD1314B1B68DB6A012202FA03F3DA43F4
:105A60002E4B1B6813402D4A13607B68B3F1FF3F38
:105A700024D13B68002B21D0294B5B683B61264B2E
:105A80001B683A699A60244B1B683A699268DA602D
:105A9000214B1A683B699B6804325A601E4B1B6895
:105AA0001A1D3B699A601C4B1B681D4A5A611C4BAE
:105AB0001B6801331A4A136000BF26E07A697B68CD
:105AC0001344FB60144B1B68FA685A60FA687B69E0
:105AD0009A4209D2134B1A680F4B1B6804331946BC
:105AE0001046FAF766FF10E00F4B1A680A4B1B6866
