:020000040800F2
:100000000000032009290308BFAE0208DBAE020886
:10001000F7AE020813AF02082FAF0208000000007D
:100020000000000000000000000000005929030843
:100030004BAF0208000000005929030867AF02080F
:10004000592903085929030859290308592903087C
:1000500059290308592903080513000859290308D9
:10006000592903085929030859290308592903085C
:10007000592903085929030859290308592903084C
:10008000592903085929030859290308592903083C
:10009000592903085929030859290308592903082C
:1000A000592903085929030859290308592903081C
:1000B00091070008592903085929030859290308F9
:1000C00059290308592903085929030859290308FC
:1000D00059290308592903085929030859290308EC
:1000E00059290308592903085929030859290308DC
:1000F00059290308592903085929030859290308CC
:1001000059290308592903085929030859290308BB
:1001100059290308592903085929030859290308AB
:10012000592903085929030859290308592903089B
:100130005929030877AF02085929030859290308E8
:10014000592903085929030859290308592903087B
:10015000592903085929030859290308592903086B
:10016000592903085929030859290308592903085B
:1001700059290308592903085929030800000000D8
:10018000592903085929030859290308592903083B
:10019000592903085929030859290308592903082B
:0C01A000592903085929030859290308AC
:1001C0000348044B834202D0034B03B118477047E6
:1001D000C4090020C40900200000000005480649A9
:1001E0000B1AD90F01EBA301491002D0034B03B145
:1001F00018477047C4090020C4090020000000000F
:1002000010B5064C237843B9FFF7DAFF044B13B15E
:100210000448AFF300800123237010BDC4090020FF
:10022000000000007029030808B5044B1BB1044905
:100230000448AFF30080BDE80840CFE700000000AD
:10024000C809002070290308A3F5803A704700BF51
:10025000154B002B08BF114B9D46FFF7F5FF002102
:100260008B460F461148124A121A2BF0C7F80C4B56
:10027000002B00D098470B4B002B00D09847002054
:10028000002104000D000B482BF062F82BF092F8CF
:100290002000290000F010F82BF066F8000008009C
:1002A000000000000000000000000000C409002061
:1002B000100B002089B3020880B500AF01F0BEFA30
:1002C00000F07BFA0D4B00221A700D4B5B690C4A53
:1002D00043F0800353610A4B5B69094A43F02003F2
:1002E0005361074B5B69064A43F040035361054B7A
:1002F0005B69044A43F480435361FEE7E009002050
:1003000000000240000C024090B587B000AF00F042
:10031000BDF900F0DDF99C4B1B78022B58D0022B65
:1003200000F36581002B02D0012B0BD05FE1974BCE
:100330001B78194696482AF0B0FD944B1A78954BD5
:100340001A7054E1914B1B78184601F050FA03469D
:10035000B3F1FF3F37D08F4B1B78002B33D08D4B41
:100360001B78184601F043FA0346B3F1FF3F2AD049
:10037000884B1B783B71854B1B787B713B7918460A
:1003800001F035FA03461C017B79184601F02FFA7B
:1003900003462343804A13607F4B1B68DBB2184639
:1003A00001F0D5F903463B817B4B1B683A8919461E
:1003B0007A482AF072FD7A4A3B891380754B0022F5
:1003C0001A7000BF13E1714B1A78724B1A700EE16C
:1003D0006E4B1B78184601F00AFA0346B3F1FF3F53
:1003E00000F000816B4B1B78002B00F0FB80694B09
:1003F0001B78184601F0FBF90346B3F1FF3F00F00C
:10040000F180644B1B783B70604B1B787B703B78B2
:10041000184601F0ECF903461C017B78184601F000
:10042000E6F9034623435F4A13605E4B1B689BB2A9
:10043000184601F009F80346FB755A4B1B6803F098
:100440000203002B14BF01230023DBB2BB75554B05
:100450001B6803F00403002B14BF01230023DBB24D
:100460007B75504B1B6803F00803002B14BF01235E
:100470000023DBB23B754B4B1B6803F01003002BD2
:1004800014BF01230023DBB2FB74464B1B6803F04F
:100490002003002B14BF01230023DBB2BB74414BAC
:1004A0001B6803F04003002B14BF01230023DBB2C1
:1004B0007B743C4B1B6803F08003002B14BF0123AB
:1004C0000023DBB23B74BA7DBB7C5340DAB27B7C49
:1004D0005340DAB23B7C5340FB737A7DFB7C534044
:1004E000DAB27B7C5340DAB23B7C5340BB733A7D3B
:1004F000FB7C5340DAB2BB7C5340DAB23B7C5340C6
:100500007B73284B1B68DBB2184601F03FF90346AA
:100510003B73BB7B5B00DAB2FB7B1344DAB27B7BC1
:100520009B00DBB21344FB72FB7A002B1CD13B7B9C
:10053000002B0CD01C4B5B691B4A23F0200353613A
:10054000194B5B69184A43F0400353613AE0164B7C
:100550005B69154A43F020035361134B5B69124AF0
:1005600043F0400353612DE03B7B002B1ED10E4B2B
:100570005B690D4A43F0200353610B4B5B690A4AE8
:1005800023F0400353611DE0E0090020E109002051
:10059000B4290308E6090020E8090020C02903085F
:1005A000E4090020EC09002000000240124B5B69C6
:1005B000114A23F0200353610F4B5B690E4A43F04D
:1005C000400353610D4B1B68FA7D19460C482AF015
:1005D00064FCFB7D9AB20B4B1A800B4B00221A7005
:1005E00000BF03E0094B1A78074B1A7000BF00BF29
:1005F0001C37BD4690BD00BF00000240EC09002042
:10060000D8290308E4090020E6090020E1090020B8
:1006100080B500AF012000F055FE0346002B0DD041
:10062000174B1B78002B03D0154B00221A7002E0E9
:10063000134B01221A70012000F054FE104B1B785E
:10064000002B0DD00F4B1B881B0A9BB2184600F0E5
:10065000C1FA0D4B5B690C4A23F0800353610CE037
:10066000084B1B88DBB29BB2184600F0B3FA064B6E
:100670005B69054A43F08003536100BF80BD00BF42
:10068000E2090020E40900200000024080B400AF2D
:100690000D4B1B7883F00103DAB20B4B1A700A4B37
:1006A0001B78002B06D0094B5B69084A23F4804372
:1006B000536105E0054B5B69044A43F48043536191
:1006C00000BFBD4680BC7047E7090020000C024017
:1006D00080B400AF1F4B1B78232B13D11E4B1B780C
:1006E000232B0FD11D4B01221A701D4B5B691C4A35
:1006F00043F0200353611A4B5B69194A43F04003EE
:10070000536123E0134B1B782A2B07D1124B1B7824
:100710002A2B03D1114B02221A7017E00D4B1B78C4
:10072000212B13D10C4B1B78212B0FD10B4B00220B
:100730001A700B4B5B690A4A43F020035361084B64
:100740005B69074A43F040035361FFE700BFBD46C2
:1007500080BC7047E1090020E6090020E009002084
:100760000000024080B500AF00202AF0FDFA0346E9
:100770001A46064B1A70054B1B78002B01D0FFF769
:10078000C3FDFFF745FF00BF80BD00BFE1090020AA
:1007900080B500AF4FF080431B6903F00103012BCC
:1007A00009D14FF080431B694FF0804223F00103D1
:1007B0001361FFF7D7FF00BF80BD80B582B000AFE7
:1007C0002AF04AF900237B60264B1B6C254A43F034
:1007D00001031364234B1B6C03F001037B607B68F4
:1007E000214B1B685B09214AA2FB0323DB094FF065
:1007F0008042013B93624FF080431B684FF0804280
:1008000043F0100313604FF0804340F6C4125A6265
:100810004FF0804340F6C412DA624FF08043DB6849
:100820004FF0804243F00103D36000220A211C20D4
:1008300003F0CBFB1C2003F0E4FB4FF080431B686C
:100840004FF0804243F00103136000F073FD01207C
:1008500000F0A2FC00F00CF82AF0C8F900BF08373D
:10086000BD4680BD0038024010000020C55A7C0AF9
:1008700090B488B000AF0023BB60724B1B6B714A11
:1008800043F0100313636F4B1B6B03F01003BB604B
:10089000BB6800237B606B4B1B6B6A4A43F02003F1
:1008A0001363684B1B6B03F020037B607B680023A2
:1008B0003B60644B1B6B634A43F040031363614B23
:1008C0001B6B03F040033B603B685F4B07F10C047C
:1008D0000FCB07C423805D4B1B685C4A23F00303E6
:1008E00013605A4B1B68594A43F001031360574B7E
:1008F0009B68564A23F003039360544B9B68534A0A
:1009000043F002039360514B5B68504A23F00103AC
:1009100053604E4B1B684D4A23F4405313604B4BBE
:100920001B684A4A43F480531360484B9B68474A0C
:1009300023F440539360454B9B68444A43F400536F
:100940009360424B5B68414A23F040035360404B45
:100950001B683F4A23F4400313603D4B1B683C4A2D
:1009600043F4800313603A4B9B68394A23F44003F5
:100970009360374B9B68364A43F400039360344BD3
:100980005B68334A23F4006353600023FB614FE04C
:10099000304B1A68FB695B0020333B4433F8143C4E
:1009A0005B00032101FA03F3DB432A4913400B6088
:1009B000284B1A68FB695B0020333B4433F8143C36
:1009C0005B00012101FA03F3224913430B60214B21
:1009D0009A68FB695B0020333B4433F8143C5B00AE
:1009E000032101FA03F3DB431A4913408B60194BCF
:1009F0009A68FB695B0020333B4433F8143C5B008E
:100A0000022101FA03F3134913438B60114B5A6817
:100A1000FB695B0020333B4433F8143C1946012347
:100A20008B40DB430B4913404B60FB690133FB6197
:100A3000FB69062BACD900BF00BF2037BD4690BC78
:100A4000704700BF00380240F02903080010024040
:100A5000001402400018024080B483B000AF034687
:100A60003960FB71FB79302B0BD10F4B5B69012196
:100A70003A6801FA02F2D24311460B4A0B40536125
:100A80000CE0FB79312B09D1074B5B6901213A68F6
:100A900001FA02F21146044A0B43536100BF0C37BE
:100AA000BD4680BC704700BF0018024080B582B0D0
:100AB00000AF78600B46FB707B68092B00F28380E7
:100AC00001A252F823F000BFF10A0008190B000838
:100AD000250B0008310B00083D0B0008490B0008EE
:100AE000710B0008990B0008A50B0008B10B00085A
:100AF000FB78302B06D1354B5B69344A23F0400339
:100B000053615BE0FB78312B58D1304B5B692F4A46
:100B100043F04003536151E0FB780F211846FFF783
:100B20009BFF50E0FB780A211846FFF795FF4AE04B
:100B3000FB780D211846FFF78FFF44E0FB780B216F
:100B40001846FFF789FF3EE0FB78302B06D1204B9B
:100B50005B691F4A23F40063536131E0FB78312B5A
:100B60002ED11B4B5B691A4A43F40063536127E0A3
:100B7000FB78302B06D1154B5B69144A23F0010337
:100B800053611FE0FB78312B1CD1104B5B690F4A7E
:100B900043F00103536115E0FB7808211846FFF785
:100BA0005BFF10E0FB7805211846FFF755FF0AE0D0
:100BB000FB7806211846FFF74FFF04E000BF02E074
:100BC00000BF00E000BF0837BD4680BD00100240F6
:100BD0000014024080B584B000AF0346FB800023C0
:100BE000FB6011E0FA88FB6842FA03F303F00103AB
:100BF000002B01D0312300E030231946F868FFF7BD
:100C000055FFFB680133FB60FB68092BEADD00BF81
:100C100000BF1037BD4680BD80B584B000AF03462D
:100C20000A46FB801346BB80FA88BB8853407B8111
:100C30000023FB6011E0FA88FB6842FA03F303F03B
:100C40000103002B01D0302300E031231946F8685E
:100C5000FFF72CFFFB680133FB60FB68092BEADD23
:100C600000BF00BF1037BD4680BD00BF80B485B057
:100C700000AF0023FB608A4B1B6B894A43F01003D3
:100C80001363874B1B6B03F01003FB60FB680023AF
:100C9000BB60834B1B6B824A43F020031363804B82
:100CA0001B6B03F02003BB60BB687E4B1B687D4A57
:100CB00023F4400313607B4B1B687A4A43F48003A0
:100CC0001360784B9B68774A23F440039360754B1D
:100CD0009B68744A43F400039360724B5B68714AEB
:100CE00023F4006353606F4BDB686E4A23F44003C8
:100CF000D3606C4BDB686B4A43F48003D3606A4B70
:100D00001B68694A23F040531360674B1B68664AAF
:100D100043F080531360644B9B68634A23F0405355
:100D20009360614B9B68604A43F0005393605E4B55
:100D30005B685D4A23F4804353605B4BDB685A4A2F
:100D400023F04053D360584BDB68574A43F080533D
:100D5000D360554B1B68544A23F040431360524BF9
:100D60001B68514A43F0804313604F4B9B684E4AC7
:100D700023F0404393604C4B9B684B4A43F0004345
:100D80009360494B5B68484A23F400435360464BE9
:100D9000DB68454A23F04043D360434BDB68424A5B
:100DA00043F08043D3603F4B9B683E4A43F40023AB
:100DB00093603C4BDB683B4A23F44023D360394BC0
:100DC0001B68384A23F440231360364B1B68354AAE
:100DD00043F400231360334B5B6A324A23F0F00381
:100DE0005362304B5B6A2F4A43F010035362002377
:100DF0007B602B4B5B6C2A4A43F001035364284B06
:100E00005B6C03F001037B607B68284B1B68284AFE
:100E1000A2FB03239B0B274A013B9362254B1B68D4
:100E2000244A23F010031360224BC822DA62214BBC
:100E300064225A631F4B9B691E4A23F0700393611F
:100E40001C4B9B691B4A43F060039361194B9B69E0
:100E5000184A43F080039361164B1B68154A43F010
:100E600080031360134B1B6A124A43F001031362A1
:100E7000104B1B6A0F4A43F0040313620D4B5B6C6B
:100E80000C4A43F40C4353640A4B1B68094A43F071
:100E90000103136000BF1437BD4680BC704700BF1C
:100EA00000380240001002400014024010000020F0
:100EB0005917B7D10000014080B483B000AF78600B
:100EC0007B68C3F164035B00104A13600F4B1B681F
:100ED000642B06DD0D4B00221A600D4BC8225A63AD
:100EE00009E00A4B1B68002B05DA084B00221A6048
:100EF000074BC8225A637B689BB25B009AB2044BD3
:100F00005A6300BF0C37BD4680BC7047F009002013
:100F10000000014080B400AF024B1B681846BD467C
:100F200080BC7047F009002080B487B000AF034652
:100F3000FB71FB7903F001037B617B69012B06D117
:100F40001D4B5B691C4A43F40043536105E01A4B97
:100F50005B69194A23F400435361FB795B1003F08A
:100F600001033B613B69012B06D1134B5B69124ABC
:100F700043F48043536105E00F4B5B690E4A23F451
:100F800080435361FB799B1003F00103FB60FB6816
:100F9000012B06D1094B5B69084A43F40063536196
:100FA00005E0064B5B69054A23F40063536100BF0B
:100FB0001C37BD4680BC7047001402400010024040
:100FC00080B485B000AF184B1B6903F40063002B9D
:100FD00014BF01230023DBB2FB60144B1B6903F435
:100FE0008043002B14BF01230023DBB2BB600F4BF7
:100FF0001B6903F40043002B14BF01230023DBB261
:101000007B60FB689B005AB2BB685B005BB213431A
:101010005AB27B685BB213435BB2FB70FB78184635
:101020001437BD4680BC70470010024000140240D7
:1010300080B582B000AF00237B60394B1B6B384A10
:1010400043F001031363364B1B6B03F001037B601A
:101050007B68344B1B68334A43F0C0031360314B49
:101060009B68304A23F0C00393602E4B9B682D4A47
:1010700043F0800393602B4BDB682A4A23F0C003C4
:10108000D36000233B60264B5B6C254A43F480739E
:101090005364234B5B6C03F480733B603B68224BCF
:1010A000224A1A60204B00225A601F4B00229A608D
:1010B0001D4B00221A611C4B00221A761A4B00228B
:1010C00083F82020184B00225A62174B0022DA6264
:1010D000154B00229A62144B0022DA60124B012257
:1010E000DA61114B002283F830200F4B00225A6145
:1010F0000D4800F089FD0E4B03221A600C4B0122B3
:101100005A600B4B00229A60094B0022DA600849B2
:10111000054801F0DDFB00BF0837BD4680BD00BFBC
:101120000038024000000240F40900200020014085
:101130003C0A002080B500AF074800F0ECFD00BF7E
:101140000A21054800F0EAFE0346002BF8D1024BC5
:101150001B68DB6C184680BDF409002080B483B0A6
:1011600000AF0346FB7197F90730002B0CDBFB79CE
:1011700003F01F02074997F907305B09012000FAC5
:1011800002F2603341F8232000BF0C37BD4680BC1B
:10119000704700BF00E100E080B584B000AF786028
:1011A0000023FB60264B1B6B254A43F004031363AB
:1011B000234B1B6B03F00403FB60FB68214B9B6814
:1011C000204A43F0020393601E4BDB681D4A23F064
:1011D0000303D3601B4B1B681A4A23F003031360FD
:1011E000174B5B6C164A43F480435364164B9B6861
:1011F000154A23F00F039360134B9B68124A43F088
:1012000002039360114B9B68104A43F00103936003
:101210000E4BDB680D4A43F00103D3600B4B1B6898
:101220000A4A43F00103136000220A21062002F05B
:10123000CCFE062002F0E5FE00BF1037BD4680BDA3
:10124000003802400008024000380140003C0140E4
:1012500080B582B000AF786000F08CFB0246154B81
:101260001B68D31A322B19D9134B1B7883F0010357
:10127000DBB2002B12D0114B1B6903F00103002BD2
:101280000FD10D4B01221A700D4A7B6852F82330A2
:101290005A1C0B497B6841F8232002E0064B0022D0
:1012A0001A7000F067FB0346024A136000BF08375C
:1012B000BD4680BD5C0A0020600A00200008024094
:1012C0004C0A002080B483B000AF7860044A7B6889
:1012D00052F8233018460C37BD4680BC704700BF1B
:1012E0004C0A002080B483B000AF7860044A7B6869
:1012F000002142F8231000BF0C37BD4680BC704768
:101300004C0A002080B500AF0620FFF727FF084BEE
:101310005B6903F00103012B08D1054B5B69044AAB
:1013200043F0010353610120FFF792FF00BF80BD2E
:10133000003C014080B483B000AF00237B603F4B92
:101340001B6B3E4A43F0010313633C4B1B6B03F0E2
:1013500001037B607B6800233B60384B1B6B374A83
:1013600043F008031363354B1B6B03F008033B602A
:101370003B68334B9B68324A43F040039360304BE9
:101380001B682F4A23F4406313602D4B1B682C4AC3
:1013900043F4806313602A4B5B68294A23F02003DF
:1013A0005360274B9B68264A43F080039360244B8D
:1013B0001B68234A23F440531360214B1B68204AC7
:1013C00043F4805313601E4B5B681D4A23F04003B7
:1013D00053601B4B9B681A4A43F480739360184B0D
:1013E0001B68174A23F440431360154B1B68144ACB
:1013F00043F480431360124B5B68114A23F080036F
:101400005360104B9B680F4A43F4004393600D4BAD
:101410001B680C4A23F0405313600A4B1B68094AAF
:1014200043F080531360074B5B68064A23F4804304
:10143000536000BF0C37BD4680BC70470038024087
:1014400000000240000C024080B487B000AF0346A9
:10145000FB800023FB74FB88BB74FB8803F0020352
:10146000002B14BF01230023DBB27B74FB8803F045
:101470000403002B14BF01230023DBB23B74FB8861
:1014800003F00803002B14BF01230023DBB2FB731E
:10149000FB8803F01003002B14BF01230023DBB2F1
:1014A000FB75FB8803F02003002B14BF01230023EE
:1014B000DBB2BB75FB8803F04003002B14BF012394
:1014C0000023DBB27B75FB8803F08003002B14BF85
:1014D00001230023DBB23B757A7CBB7D5340DAB23B
:1014E0007B7D5340DAB23B7D5340BB733A7CFB7D3E
:1014F0005340DAB27B7D5340DAB23B7D53407B737D
:10150000FA7BFB7D5340DAB2BB7D5340DAB23B7DC0
:1015100053403B73BB7B002B05D17B7B002B02D15F
:101520003B7B002B75D0BB7B002B0DD17B7B002B35
:101530000AD03B7B002B07D0FB7D002B0CBF012387
:101540000023DBB2FB7564E0BB7B002B0DD07B7B03
:10155000002B0AD13B7B002B07D0BB7D002B0CBF9F
:1015600001230023DBB2BB7553E0BB7B002B0DD006
:101570007B7B002B0AD03B7B002B07D17B7D002B94
:101580000CBF01230023DBB27B7542E0BB7B002B49
:101590000DD07B7B002B0AD03B7B002B07D03B7D03
:1015A000002B0CBF01230023DBB23B7531E0BB7B7A
:1015B000002B0DD07B7B002B0AD13B7B002B07D16E
:1015C0007B7C002B0CBF01230023DBB27B7420E06B
:1015D000BB7B002B0DD17B7B002B0AD03B7B002BF0
:1015E00007D13B7C002B0CBF01230023DBB23B74F3
:1015F0000FE0BB7B002B0CD17B7B002B09D13B7B0D
:10160000002B06D0FB7B002B0CBF01230023DBB299
:10161000FB73BB7D5B005AB297F9173013435AB284
:101620007B7D9B005BB213435AB23B7DDB005BB218
:1016300013435BB2FB74FB7C18461C37BD4680BC71
:10164000704780B487B000AF0346FB710023FB7581
:10165000FB7903F00103002B14BF01230023DBB24D
:101660007B75FB7903F00203002B14BF01230023D9
:10167000DBB23B75FB7903F00403002B14BF01239D
:101680000023DBB2FB74FB7903F00803002B14BFCB
:1016900001230023DBB2BB743A7DFB7C5340DAB2FA
:1016A000BB7C53407B747A7DFB7C5340DAB2BB7CBD
:1016B00053403B747A7D3B7D5340DAB2BB7C534050
:1016C000FB737B7C5B005AB23B7C9B005BB2134399
:1016D0005AB2FB7BDB005BB213435AB27B7D1B012A
:1016E0005BB213435AB23B7D5B015BB213435AB208
:1016F000FB7C9B015BB213435AB2BB7CDB015BB248
:1017000013435BB2BB730123BB7513E0BA7BBB7D94
:1017100042FA03F303F00103002B14BF012300235B
:10172000DBB25AB297F9173053405BB2FB75BB7D01
:101730000133BB75BB7D072BE8D9BA7BFB7D134317
:10174000BB73BB7B18461C37BD4680BC704790B549
:1017500085B000AF0346FB71FB7903F00F03DBB2EA
:101760001846FFF76EFF03461CB2FB791B09DBB27C
:101770001846FFF766FF03461B021BB223431BB24A
:10178000FB81FB8918461437BD4690BD80B485B0F7
:1017900000AF0346FB71FB7903F001037B73002369
:1017A000BB730123FB7313E0FA79FB7B42FA03F36B
:1017B00003F00103002B14BF01230023DBB25AB254
:1017C00097F90E3053405BB2BB73FB7B0133FB7365
:1017D000FB7B072BE8D9BA7B7B7B9A4201D00123A4
:1017E00000E0002318461437BD4680BC704780B423
:1017F00083B000AF0346FB71FB792F2B05D9FB7932
:10180000392B02D8FB79303B13E0FB79602B05D9EB
:10181000FB79662B02D8FB79573B0AE0FB79402B1A
:1018200005D9FB79462B02D8FB79373B01E04FF015
:10183000FF3318460C37BD4680BC704780B500AFFB
:101840000E4B1B680D4A43F4007313600B4B1B686F
:101850000A4A43F480631360084B1B68074A43F449
:1018600080731360032002F0A5FB0F2000F040F806
:1018700000F032F80023184680BD00BF003C024053
:1018800080B500AF134B4FF0FF321A62114B0022AC
:101890001A62104B4FF0FF325A620E4B00225A620E
:1018A0000C4B4FF0FF321A610A4B00221A61094BB0
:1018B0004FF0FF325A61074B00225A61054B4FF03F
:1018C000FF329A61034B00229A6100F00BF800236B
:1018D000184680BD0038024080B400AF00BFBD464E
:1018E00080BC704780B400AF00BFBD4680BC70476D
:1018F00080B582B000AF7860124B1A68124B1B782B
:1019000019464FF47A73B3FBF1F3B2FBF3F31846C5
:1019100002F097FB0346002B01D001230EE07B6809
:101920000F2B0AD8002279684FF0FF3002F04DFBF0
:10193000064A7B681360002300E00123184608373D
:10194000BD4680BD100000200800002004000020DB
:1019500080B400AF054B1B781A46054B1B68134437
:10196000034A136000BFBD4680BC704708000020DA
:10197000640A002080B400AF024B1B681846BD46C5
:1019800080BC7047640A002080B400AF024B1B6823
:101990001846BD4680BC70470400002080B584B066
:1019A00000AF0346FB710023FB730E4B1B78FA79E3
:1019B0009A4212D00B4B1B78BB730A4AFB79137007
:1019C000094B1B681846FFF793FF0346FB73FB7B2D
:1019D000002B02D0034ABB7B1370FB7B18461037E9
:1019E000BD4680BD080000200400002080B400AF88
:1019F000024B1B781846BD4680BC7047080000208B
:101A000080B584B000AF7860FFF7B4FFB8607B6842
:101A1000FB60FB68B3F1FF3F05D00A4B1B781A4609
:101A2000FB681344FB6000BFFFF7A4FF0246BB68DE
:101A3000D31AFA689A42F7D800BF00BF1037BD46E4
:101A400080BD00BF0800002080B400AF044B1B68BD
:101A5000034A23F00203136000BFBD4680BC7047F9
:101A600010E000E080B400AF044B1B68034A43F071
:101A70000203136000BFBD4680BC704710E000E069
:101A800080B400AF024B1846BD4680BC704700BF13
:101A9000000D070180B400AF034B1B681B0C1846F8
:101AA000BD4680BC704700BF002004E080B400AF9A
:101AB000034B1B68C3F30B031846BD4680BC70473D
:101AC000002004E080B400AF044B5B68034A43F09D
:101AD0000103536000BFBD4680BC7047002004E096
:101AE00080B400AF044B5B68034A23F001035360EA
:101AF00000BFBD4680BC7047002004E080B400AF4A
:101B0000044B5B68034A43F00203536000BFBD46C9
:101B100080BC7047002004E080B400AF044B5B68D9
:101B2000034A23F00203536000BFBD4680BC7047E8
:101B3000002004E080B400AF044B5B68034A43F02C
:101B40000403536000BFBD4680BC7047002004E022
:101B500080B400AF044B5B68034A23F00403536076
:101B600000BFBD4680BC7047002004E080B400AFD9
:101B7000034B01221A6000BFBD4680BC704700BF06
:101B80000004274280B400AF034B00221A6000BF5C
:101B9000BD4680BC704700BF0004274280B400AF40
:101BA000024B1B681846BD4680BC7047107AFF1F69
:101BB00080B400AF024B1B681846BD4680BC70471E
:101BC000147AFF1F80B400AF024B1B681846BD4655
:101BD00080BC7047187AFF1F80B400AF034B01220E
:101BE0001A6000BFBD4680BC704700BF200027427E
:101BF00080B400AF034B00221A6000BFBD4680BC1A
:101C0000704700BF2000274280B584B000AF7860E5
:101C10000023FB737B68002B01D1012333E07B6839
:101C20001B6C002B09D1786800F063F87B680022F8
:101C30005A647B68002283F83C207B681B6C03F0AD
:101C40001003002B18D17B681B6C23F4885323F0FE
:101C5000020343F002027B681A64786800F0DFFF39
:101C60007B6800225A647B681B6C23F0030343F0FB
:101C700001027B681A6401E00123FB737B68002288
:101C800083F83C20FB7B18461037BD4680BD80B5ED
:101C900084B000AF78600023FB737B68002B01D118
:101CA000012322E07B681B6C43F002027B681A640C
:101CB0007B681B689A687B681B6822F001029A6047
:101CC0007B681B689B6803F00103002B08D17868D0
:101CD00000F018F87B6800225A647B6800221A64BE
:101CE0007B68002283F83C20FB7B18461037BD46FA
:101CF00080BD80B483B000AF786000BF0C37BD46B4
:101D000080BC704780B483B000AF786000BF0C37F0
:101D1000BD4680BC704780B485B000AF78600023BA
:101D2000BB607B6893F83C30012B01D10223B2E009
:101D30007B68012283F83C207B681B689B6803F06A
:101D40000103012B18D07B681B689A687B681B68AD
:101D500042F001029A60524B1B68524AA2FB0323D5
:101D60009A0C13465B001344BB6002E0BB68013B66
:101D7000BB60BB68002BF9D17B681B689B6803F0D4
:101D80000103012B7AD17B681B6C23F4E06323F001
:101D9000010343F480727B681A647B681B685B688C
:101DA00003F48063002B07D07B681B6C23F4405343
:101DB00043F480527B681A647B681B6C03F4805385
:101DC000B3F5805F06D17B685B6C23F006027B680D
:101DD0005A6402E07B6800225A647B68002283F820
:101DE0003C20314BFB607B681B686FF022021A605D
:101DF000FB685B6803F01F03002B2AD17B681B681C
:101E00002A4A934215D07B681B68294A934205D120
:101E1000254B5B6803F01F03002B0AD07B681B680F
:101E2000244A934236D1204B5B6803F01003002B09
:101E300030D17B681B689B6803F04053002B29D18D
:101E40007B681B689A687B681B6842F080429A60D6
:101E500020E07B681B68154A93421BD17B681B6896
:101E60009B6803F04053002B14D17B681B689A6871
:101E70007B681B6842F080429A600BE07B681B6CB9
:101E800043F010027B681A647B685B6C43F00102CC
:101E90007B685A64002318461437BD4680BC7047DF
:101EA0001000002083DE1B4300230140002001407E
:101EB000002101400022014080B483B000AF78606F
:101EC0007B6893F83C30012B01D1022321E07B6831
:101ED000012283F83C207B681B689A687B681B683A
:101EE00022F001029A607B681B689B6803F0010383
:101EF000002B09D17B681B6C23F4885323F001036A
:101F000043F001027B681A647B68002283F83C205E
:101F1000002318460C37BD4680BC704780B584B09E
:101F200000AF786039600023FB607B681B689B68AA
:101F300003F48063B3F5806F13D17B681B689B68E3
:101F400003F48073B3F5807F0BD17B681B6C43F087
:101F500020027B681A647B68002283F83C200123FE
:101F600063E0FFF707FDF86021E03B68B3F1FF3F56
:101F70001DD03B68002B07D0FFF7FCFC0246FB6836
:101F8000D31A3A689A4212D27B681B681B6803F026
:101F90000203022B0BD07B681B6C43F004027B68AE
:101FA0001A647B68002283F83C2003233DE07B68B1
:101FB0001B681B6803F00203022BD6D17B681B68E9
:101FC0006FF012021A607B681B6C43F400727B682E
:101FD0001A647B681B689B6803F04053002B23D175
:101FE0007B681B7E002B1FD17B681B68DB6A03F4B8
:101FF0007003002B06D07B681B689B6803F480632A
:10200000002B11D17B681B6C23F480727B681A64EF
:102010007B681B6C03F48053002B05D17B681B6C21
:1020200043F001027B681A64002318461037BD464E
:1020300080BD80B586B000AFF860B9607A600023DB
:102040007B61FFF797FC786122E07B68B3F1FF3F8B
:102050001ED07B68002B07D0FFF78CFC02467B6903
:10206000D31A7A689A4213D2FB681B681A68BB6855
:102070001340BA689A420BD0FB681B6C43F0040211
:10208000FB681A64FB68002283F83C20032328E0E5
:10209000FB681B681A68BB681340BA689A42D4D1BF
:1020A000BB68012B0BD1FB681B6C43F48032FB68CF
:1020B0001A64FB681B686FF001021A6010E0FB688D
:1020C0001B6C43F48062FB681A64FB685B6C43F032
:1020D0000202FB685A64FB681B686FF020021A60FA
:1020E000002318461837BD4680BD80B485B000AFC8
:1020F00078600023BB607B6893F83C30012B01D1F2
:102100000223BDE07B68012283F83C207B681B68CA
:102110009B6803F00103012B18D07B681B689A6849
:102120007B681B6842F001029A60584B1B68584A52
:10213000A2FB03239A0C13465B001344BB6002E02E
:10214000BB68013BBB60BB68002BF9D17B681B6897
:102150009B6803F00103012B40F085807B681B6CBA
:1021600023F4E06323F0010343F480727B681A6474
:102170007B681B685B6803F48063002B07D07B6877
:102180001B6C23F4405343F480527B681A647B68D1
:102190001B6C03F48053B3F5805F06D17B685B6CE6
:1021A00023F006027B685A6402E07B6800225A64CE
:1021B0007B68002283F83C20364BFB607B681B6801
:1021C0006FF022021A607B681B685B687A6812688D
:1021D00043F0806343F020035360FB685B6803F0C7
:1021E0001F03002B2AD17B681B682B4A934215D012
:1021F0007B681B68294A934205D1264B5B6803F034
:102200001F03002B0AD07B681B68254A934236D1F6
:10221000204B5B6803F01003002B30D17B681B68F8
:102220009B6803F04053002B29D17B681B689A6898
:102230007B681B6842F080429A6020E07B681B68E4
:10224000154A93421BD17B681B689B6803F040537F
:10225000002B14D17B681B689A687B681B6842F06E
:1022600080429A600BE07B681B6C43F010027B6835
:102270001A647B685B6C43F001027B685A6400233C
:1022800018461437BD4680BC704700BF10000020C0
:1022900083DE1B4300230140002001400021014058
:1022A0000022014080B483B000AF78607B6893F86F
:1022B0003C30012B01D102232BE07B68012283F803
:1022C0003C207B681B689A687B681B6822F00102CF
:1022D0009A607B681B689B6803F00103002B13D195
:1022E0007B681B685B687A68126823F0806323F060
:1022F000200353607B681B6C23F4885323F0010395
:1023000043F001027B681A647B68002283F83C205A
:10231000002318460C37BD4680BC704780B584B09A
:1023200000AF78600023FB600023BB607B681B6804
:102330001B6803F00203022B0CBF01230023DBB256
:10234000FB607B681B685B6803F02003202B0CBFDD
:1023500001230023DBB2BB60FB68002B49D0BB68C4
:10236000002B46D07B681B6C03F01003002B05D1BB
:102370007B681B6C43F400727B681A647B681B6883
:102380009B6803F04053002B2BD17B681B7E002BF6
:1023900027D17B681B68DB6A03F47003002B06D02F
:1023A0007B681B689B6803F48063002B19D17B68F2
:1023B0001B685A687B681B6822F020025A607B68A1
:1023C0001B6C23F480727B681A647B681B6C03F4BB
:1023D0008053002B05D17B681B6C43F001027B68A6
:1023E0001A64786800F050FA7B681B686FF012027C
:1023F0001A607B681B681B6803F00403042B0CBF86
:1024000001230023DBB2FB607B681B685B6803F081
:102410008003802B0CBF01230023DBB2BB60FB6871
:10242000002B57D0BB68002B54D07B681B6C03F08B
:102430001003002B05D17B681B6C43F400527B68B2
:102440001A647B681B689B6803F44013002B39D126
:102450007B681B689B6B03F44013002B06D07B68E2
:102460001B689B6803F48063002B2BD17B681B687F
:102470005B6803F48063002B24D17B681B689B6836
:1024800003F04053002B1DD17B681B7E002B19D11C
:102490007B681B685A687B681B6822F080025A6060
:1024A0007B681B6C23F480527B681A647B681B6C0E
:1024B00003F48073002B05D17B681B6C43F0010291
:1024C0007B681A64786801F037F97B681B686FF0E5
:1024D0000C021A607B681B681B6803F00103012B68
:1024E0000CBF01230023DBB2FB607B681B685B68C9
:1024F00003F04003402B0CBF01230023DBB2BB6081
:10250000FB68002B17D0BB68002B14D07B681B68BE
:102510001B6803F00103012B0DD17B681B6C43F496
:1025200080327B681A64786800F0C0F97B681B68A9
:102530006FF001021A607B681B681B6803F02003C0
:10254000202B0CBF01230023DBB2FB607B681B68E0
:102550005B6803F08063B3F1806F0CBF012300233D
:10256000DBB2BB60FB68002B15D0BB68002B12D020
:102570007B685B6C43F002027B685A647B681B6873
:102580006FF020021A60786800F099F97B681B6888
:102590006FF020021A6000BF1037BD4680BD80B5C5
:1025A00086B000AFF860B9607A6000233B61FB68D9
:1025B00093F83C30012B01D10223E9E0FB680122B2
:1025C00083F83C20FB681B689B6803F00103012B28
:1025D00018D0FB681B689A68FB681B6842F0010210
:1025E0009A606D4B1B686D4AA2FB03239A0C13463D
:1025F0005B0013443B6102E03B69013B3B613B698B
:10260000002BF9D1FB681B689B6803F48073B3F55A
:10261000807F07D1FB681B689A68FB681B6822F4FF
:1026200080729A60FB681B689B6803F00103012BB2
:1026300040F0A180FB681B6C23F4E06323F00103EE
:1026400043F48072FB681A64FB681B685B6803F4E0
:102650008063002B07D0FB681B6C23F4405343F4CA
:102660008052FB681A64FB681B6C03F48053B3F55B
:10267000805F06D1FB685B6C23F00602FB685A643E
:1026800002E0FB6800225A64FB68002283F83C20C9
:10269000434B7B61FB689B6B424ADA63FB689B6B35
:1026A000414A1A64FB689B6B404ADA64FB681B680A
:1026B0006FF022021A60FB681B685A68FB681B688F
:1026C00042F080625A60FB681B689A68FB681B686E
:1026D00042F480729A60FB68986BFB681B684C330D
:1026E0001946BA687B6802F090FB7B695B6803F06F
:1026F0001F03002B2AD1FB681B682D4A934215D07B
:10270000FB681B682B4A934205D1254B5B6803F09D
:102710001F03002B0AD0FB681B68274A934236D15F
:102720001F4B5B6803F01003002B30D1FB681B6864
:102730009B6803F04053002B29D1FB681B689A6803
:10274000FB681B6842F080429A6020E0FB681B68CF
:10275000174A93421BD1FB681B689B6803F04053E8
:10276000002B14D1FB681B689A68FB681B6842F059
:1027700080429A600BE0FB681B6C43F01002FB6820
:102780001A64FB685B6C43F00102FB685A64002327
:1027900018461837BD4680BD1000002083DE1B435D
:1027A00000230140152E0008CF2E0008EB2E000854
:1027B00000200140002101400022014080B584B08A
:1027C00000AF78600023FB737B6893F83C30012BEB
:1027D00001D1022348E07B68012283F83C207B681A
:1027E0001B689A687B681B6822F001029A607B680C
:1027F0001B689B6803F00103002B30D17B681B68CA
:102800009A687B681B6822F480729A607B689B6B75
:1028100093F83530DBB2022B0FD17B689B6B1846E7
:1028200002F04BFB0346FB73FB7B002B05D07B6860
:102830001B6C43F040027B681A647B681B685A6813
:102840007B681B6822F080625A607B681B6C23F4F3
:10285000885323F0010343F001027B681A647B680C
:10286000002283F83C20FB7B18461037BD4680BD14
:1028700080B483B000AF78607B681B68DB6C18465F
:102880000C37BD4680BC704780B483B000AF786021
:1028900000BF0C37BD4680BC704780B483B000AF2A
:1028A000786000BF0C37BD4680BC704780B483B0F1
:1028B00000AF786000BF0C37BD4680BC704780B465
:1028C00083B000AF786000BF0C37BD4680BC704756
:1028D00080B485B000AF786039600023BB607B684E
:1028E00093F83C30012B01D1022313E17B680122D4
:1028F00083F83C203B681B68092B25D97B681B6843
:10290000D9683B681B689BB21A4613465B001344A8
:102910001E3B072202FA03F3DA437B681B680A4076
:10292000DA607B681B68D9683B689A683B681B68FB
:102930009BB2184603465B0003441E3B9A407B68EB
:102940001B680A43DA6022E07B681B6819693B68F0
:102950001B689BB21A4613465B001344072202FA17
:1029600003F3DA437B681B680A401A617B681B68C3
:1029700019693B689A683B681B689BB21846034616
:102980005B0003449A407B681B680A431A613B68FA
:102990005B68062B24D87B681B68596B3B685A68B8
:1029A00013469B001344053B1F2202FA03F3DA434C
:1029B0007B681B680A405A637B681B68596B3B68DD
:1029C0001B689BB218463B685A6813469B00134429
:1029D000053B00FA03F27B681B680A435A634CE02C
:1029E0003B685B680C2B24D87B681B68196B3B68C1
:1029F0005A6813469B001344233B1F2202FA03F339
:102A0000DA437B681B680A401A637B681B68196B92
:102A10003B681B689BB218463B685A6813469B008C
:102A20001344233B00FA03F27B681B680A431A63D2
:102A300023E07B681B68D96A3B685A6813469B0091
:102A40001344413B1F2202FA03F3DA437B681B68FD
:102A50000A40DA627B681B68D96A3B681B689BB2D4
:102A600018463B685A6813469B001344413B00FAE2
:102A700003F27B681B680A43DA62294BFB607B68C0
:102A80001B68284A93420FD13B681B68122B0BD15D
:102A9000FB685B6823F40002FB685A60FB685B68B4
:102AA00043F48002FB685A607B681B681D4A9342AE
:102AB0002BD13B681B681C4A934203D03B681B68C0
:102AC000112B22D1FB685B6823F48002FB685A60FB
:102AD000FB685B6843F40002FB685A603B681B6854
:102AE000114A934211D1114B1B68114AA2FB0323D7
:102AF0009A0C13469B0013445B00BB6002E0BB686A
:102B0000013BBB60BB68002BF9D17B68002283F8D6
:102B10003C20002318461437BD4680BC704700BFD8
:102B2000002301400020014012000010100000208E
:102B300083DE1B4380B483B000AF786039607B686C
:102B400093F83C30012B01D102234DE07B68012238
:102B500083F83C203B681B7C012B08D17B681B68F9
:102B60005A687B681B6842F040025A6007E07B6845
:102B70001B685A687B681B6822F040025A607B68B9
:102B80001B685B687A68126823F4400323F40073BF
:102B900053607B681B6859683B681A687B681B68D0
:102BA0000A435A607B681B683A6852685A627B68BD
:102BB0001B683A6892689A627B681B685A687B68EF
:102BC0001B6822F01F025A607B681B685A683B68CA
:102BD000DB689BB219467B681B680A435A607B68B6
:102BE000002283F83C20002318460C37BD4680BCE9
:102BF000704780B483B000AF78607B681B6C184668
:102C00000C37BD4680BC704780B483B000AF78609D
:102C10007B685B6C18460C37BD4680BC704780B43F
:102C200085B000AF7860794BFB60FB685B6823F48C
:102C30004032FB685A60FB685A687B685B681A43DD
:102C4000FB685A607B681B685A687B681B6822F4C3
:102C500080725A607B681B6859687B681B691A021E
:102C60007B681B680A435A607B681B685A687B68EC
:102C70001B6822F040725A607B681B6859687B6849
:102C80009A687B681B680A435A607B681B689A686D
:102C90007B681B6822F400629A607B681B689968F5
:102CA0007B68DA687B681B680A439A607B689B6A6A
:102CB000574A934222D07B681B689A687B681B68DE
:102CC00022F070629A607B681B6899687B689A6AD8
:102CD0007B681B680A439A607B681B689A687B68FC
:102CE0001B6822F040529A607B681B6899687B6879
:102CF000DA6A7B681B680A439A600FE07B681B688E
:102D00009A687B681B6822F070629A607B681B6817
:102D10009A687B681B6822F040529A607B681B6847
:102D20009A687B681B6822F002029A607B681B68C5
:102D300099687B681B7E5A007B681B680A439A600F
:102D40007B6893F82030002B1BD07B681B685A6887
:102D50007B681B6842F400625A607B681B685A6893
:102D60007B681B6822F460425A607B681B68596864
:102D70007B685B6A013B5A037B681B680A435A60A5
:102D800007E07B681B685A687B681B6822F4006256
:102D90005A607B681B68DA6A7B681B6822F47002E1
:102DA000DA627B681B68D96A7B68DB69013B1A05BC
:102DB0007B681B680A43DA627B681B689A687B68D9
:102DC0001B6822F400729A607B681B6899687B68B4
:102DD00093F830305A027B681B680A439A607B681C
:102DE0001B689A687B681B6822F480629A607B6823
:102DF0001B6899687B685B699A027B681B680A4359
:102E00009A6000BF1437BD4680BC70470023014064
:102E10000100000F80B584B000AF78607B689B6BC9
:102E2000FB60FB681B6C03F05003002B3CD1FB687C
:102E30001B6C43F40072FB681A64FB681B689B6898
:102E400003F04053002B2BD1FB681B7E002B27D1B6
:102E5000FB681B68DB6A03F47003002B06D0FB6879
:102E60001B689B6803F48063002B19D1FB681B6807
:102E70005A68FB681B6822F020025A60FB681B6CD2
:102E800023F48072FB681A64FB681B6C03F48053A4
:102E9000002B05D1FB681B6C43F00102FB681A6430
:102EA000F868FFF7F1FC0EE0FB681B6C03F0100301
:102EB000002B03D0F868FFF702FD04E0FB689B6B72
:102EC000DB6C7868984700BF1037BD4680BD80B581
:102ED00084B000AF78607B689B6BFB60F868FFF79D
:102EE000DCFC00BF1037BD4680BD80B584B000AFAC
:102EF00078607B689B6BFB60FB6840221A64FB6810
:102F00005B6C43F00402FB685A64F868FFF7D7FC77
:102F100000BF1037BD4680BD80B487B000AF786079
:102F20000023BB6000237B6100233B617B6893F837
:102F30003C30012B01D10223AAE07B68012283F8F7
:102F40003C207B681B689B6803F00103012B18D0B1
:102F50007B681B689A687B681B6842F001029A6074
:102F60004E4B1B684E4AA2FB03239A0C13465B0090
:102F70001344BB6002E0BB68013BBB60BB68002B35
:102F8000F9D17B681B689B6803F00103012B72D1A8
:102F90007B681B6C23F4405323F0010343F48052FD
:102FA0007B681A647B681B6C03F48073002B02D16E
:102FB0007B6800225A647B68002283F83C207B688F
:102FC0001B686FF004021A60364BFB60FB685B689D
:102FD00003F01F03002B24D17B681B689B6803F45C
:102FE0004013002B0CBF01230023DBB27B617B6805
:102FF0001B685B6803F48063002B0CBF0123002374
:10300000DBB23B617B69002B41D03B69002B3ED09A
:103010007B681B689A687B681B6842F480029A6030
:1030200035E07B681B689B6803F44013002B0CBFE2
:1030300001230023DBB27B617B681B685B6803F4C0
:103040008063002B0CBF01230023DBB23B617B6854
:103050001B68154A93421AD17B69002B17D03B6934
:10306000002B14D07B681B689A687B681B6842F44D
:1030700080029A600BE07B681B6C43F010027B6857
:103080001A647B685B6C43F001027B685A6400231E
:1030900018461C37BD4680BC704700BF100000209A
:1030A00083DE1B43002301400020014080B487B031
:1030B00000AF78600023BB6000237B6100233B618D
:1030C0007B6893F83C30012B01D10223B2E07B688E
:1030D000012283F83C207B681B689B6803F0010396
:1030E000012B18D07B681B689A687B681B6842F0CC
:1030F00001029A60524B1B68524AA2FB03239A0CAE
:1031000013465B001344BB6002E0BB68013BBB603D
:10311000BB68002BF9D17B681B689B6803F0010337
:10312000012B7AD17B681B6C23F4405323F00103FD
:1031300043F480527B681A647B681B6C03F48073D1
:10314000002B02D17B6800225A647B68002283F83E
:103150003C207B681B686FF004021A607B681B6868
:103160005A687B681B6842F080025A60364BFB60ED
:10317000FB685B6803F01F03002B24D17B681B688E
:103180009B6803F44013002B0CBF01230023DBB228
:103190007B617B681B685B6803F48063002B0CBF5A
:1031A00001230023DBB23B617B69002B41D03B69EB
:1031B000002B3ED07B681B689A687B681B6842F4D2
:1031C00080029A6035E07B681B689B6803F44013BB
:1031D000002B0CBF01230023DBB27B617B681B68E3
:1031E0005B6803F48063002B0CBF01230023DBB278
:1031F0003B617B681B68154A93421AD17B69002B9F
:1032000017D03B69002B14D07B681B689A687B68D9
:103210001B6842F480029A600BE07B681B6C43F0F1
:1032200010027B681A647B685B6C43F001027B6868
:103230005A64002318461C37BD4680BC704700BF47
:103240001000002083DE1B430023014000200140CA
:1032500080B485B000AF78600023FB737B6893F87F
:103260003C30012B01D1022337E07B68012283F837
:103270003C207B681B6C03F48073002B20D17B689F
:103280001B685B6803F48063002B19D17B681B68A3
:103290009A687B681B6822F001029A607B681B6851
:1032A0009B6803F00103002B12D17B681B6C23F495
:1032B000885323F0010343F001027B681A6407E09E
:1032C0007B681B6C43F020027B681A640123FB734C
:1032D0007B68002283F83C20FB7B18461437BD46F0
:1032E00080BC704780B584B000AF7860396000233F
:1032F000FB60FEF73FFBF8601EE03B68B3F1FF3F69
:103300001AD03B68002B07D0FEF734FB0246FB685F
:10331000D31A3A689A420FD27B681B681B6803F085
:103320000403042B08D07B6804221A647B68002203
:1033300083F83C2003234BE07B681B681B6803F089
:103340000403042BD9D17B681B686FF00C021A6050
:103350007B681B6C43F400527B681A647B681B68B3
:103360009B6803F44013002B31D17B681B689B6B77
:1033700003F44013002B06D07B681B689B6803F4A2
:103380008063002B23D17B681B685B6803F4806338
:10339000002B1CD17B681B689B6803F04053002BFB
:1033A00015D17B681B7E002B11D17B681B6C23F42D
:1033B00080527B681A647B681B6C03F48073002B5B
:1033C00005D17B681B6C43F001027B681A64002303
:1033D00018461037BD4680BD80B485B000AF786018
:1033E0000023FB737B6893F83C30012B01D102234F
:1033F0003FE07B68012283F83C207B681B6C03F470
:103400008073002B28D17B681B685B6803F48063A2
:10341000002B21D17B681B689A687B681B6822F0AF
:1034200001029A607B681B689B6803F00103002B14
:103430001AD17B681B685A687B681B6822F080027F
:103440005A607B681B6C23F4885323F0010343F01C
:1034500001027B681A6407E07B681B6C43F0200262
:103460007B681A640123FB737B68002283F83C208D
:10347000FB7B18461437BD4680BC704780B485B0CE
:1034800000AF786039600023FB607B681B686FF0D9
:1034900004021A603B68013B032B1FD801A252F8BB
:1034A00023F000BFD3340008C9340008BF3400083B
:1034B000B53400087B681B689B6CFB600FE07B6881
:1034C0001B685B6CFB600AE07B681B681B6CFB6025
:1034D00005E07B681B68DB6BFB6000E000BFFB68FE
:1034E00018461437BD4680BC704780B586B000AF23
:1034F000F860B9607A6000233B61FB6893F83C3068
:10350000012B01D10223ABE0FB68012283F83C20B0
:10351000FB681B689B6803F00103012B18D0FB6854
:103520001B689A68FB681B6842F001029A604E4B68
:103530001B684E4AA2FB03239A0C13465B001344FC
:103540003B6102E03B69013B3B613B69002BF9D1E8
:10355000FB681B689B6803F00103012B73D1FB68B8
:103560001B6C23F4E06323F0010343F48072FB68D7
:103570001A64FB681B685B6803F48063002B07D048
:10358000FB681B6C23F4405343F48052FB681A64BD
:10359000FB681B6C03F48053B3F5805F06D1FB68B6
:1035A0005B6C23F00602FB685A6402E0FB680022B1
:1035B0005A64FB68002283F83C20FB689B6B2C4A12
:1035C000DA63FB689B6B2B4A1A64FB689B6B2A4A85
:1035D000DA64FB681B686FF002021A60FB681B6804
:1035E0005A68FB681B6842F080625A60234B7B611B
:1035F000FB6893F83030002B06D07B695B6843F49E
:1036000000527B695A6005E07B695B6823F40052D5
:103610007B695A60FB68986B7B6908331946BA6806
:103620007B6801F0F2FBFB681B689B6803F040536A
:10363000002B14D1FB681B689A68FB681B6842F07A
:1036400080429A600BE0FB681B6C43F01002FB6841
:103650001A64FB685B6C43F00102FB685A64002348
:1036600018461837BD4680BD1000002083DE1B437E
:10367000093B0008AF3B0008CB3B0008002301409A
:1036800080B584B000AF78600023FB737B6893F84B
:103690003C30012B01D1022338E07B68012283F802
:1036A0003C207B681B689A687B681B6822F00102DB
:1036B0009A60184BBB607B681B689B6803F0010332
:1036C000002B1ED1BB685B6823F40052BB685A60B4
:1036D0007B689B6B184601F0F0FB0346FB737B682D
:1036E0001B685A687B681B6822F080625A607B689E
:1036F0001B6C23F4885323F0010343F001027B6821
:103700001A647B68002283F83C20FB7B1846103744
:10371000BD4680BD0023014080B485B000AF786015
:10372000044BFB60FB689B6818461437BD4680BCA1
:10373000704700BF0023014080B483B000AF7860C1
:1037400000BF0C37BD4680BC704780B485B000AF69
:10375000786039607B6893F83C30012B01D10223FB
:103760007EE17B68012283F83C203B681B68092BC3
:1037700025D97B681B68D9683B681B689BB21A46D1
:1037800013465B0013441E3B072202FA03F3DA439D
:103790007B681B680A40DA607B681B68D9683B68F5
:1037A0009A683B681B689BB2184603465B0003445B
:1037B0001E3B9A407B681B680A43DA6022E07B6804
:1037C0001B6819693B681B689BB21A4613465B006D
:1037D0001344072202FA03F3DA437B681B680A40AA
:1037E0001A617B681B6819693B689A683B681B68AB
:1037F0009BB2184603465B0003449A407B681B68F3
:103800000A431A617B681B689A6B7B681B6822F409
:1038100040129A637B681B68996B3B681B69013B8C
:103820001A057B681B680A439A637B681B68996B5F
:103830003B685B68DAB23B681B69DBB2D31ADBB268
:103840000333DBB21A4613469B0013441F2202FACD
:1038500003F3DA437B681B680A409A637B681B6842
:10386000996B3B681B689BB218463B685B68DAB291
:103870003B681B69DBB2D31ADBB20333DBB21A46F7
:1038800013469B00134400FA03F27B681B680A434B
:103890009A633B689B69754A934222D07B681B6898
:1038A0009A687B681B6822F470229A607B681B68A8
:1038B00099683B689A697B681B680A439A607B68D1
:1038C0001B689A687B681B6822F440129A607B68C8
:1038D0001B6899683B68DA697B681B680A439A60D1
:1038E0000FE07B681B689A687B681B6822F4702273
:1038F0009A607B681B689A687B681B6822F4401298
:103900009A603B685B7D002B08D07B681B685A6817
:103910007B681B6842F480625A6007E07B681B6822
:103920005A687B681B6822F480625A603B681B7D82
:10393000002B08D07B681B685A687B681B6842F4C0
:1039400080525A6007E07B681B685A687B681B6876
:1039500022F480525A603B685B68032B2ED0032B05
:1039600040D8012B02D0022B14D03BE07B681B68AF
:103970005B697A68126823F47F6323F00F03536155
:103980007B681B6859693B68DA687B681B680A4377
:103990005A613BE07B681B689B697A68126823F474
:1039A0007F6323F00F0393617B681B6899693B6811
:1039B000DA687B681B680A439A6127E07B681B68AA
:1039C000DB697A68126823F47F6323F00F03D36105
:1039D0007B681B68D9693B68DA687B681B680A43A7
:1039E000DA6113E07B681B681B6A7A68126823F44B
:1039F0007F6323F00F0313627B681B68196A3B68BF
:103A0000DA687B681B680A431A6200BF184BFB60C8
:103A10007B681B68174A934209D13B681B68122BCD
:103A200005D1FB685B6843F48002FB685A607B68E1
:103A30001B68104A93420ED13B681B680E4A9342A2
:103A400003D03B681B68112B05D1FB685B6843F40E
:103A50000002FB685A607B68002283F83C20002348
:103A600018461437BD4680BC704700BF01000F00E8
:103A700000230140002001401200001080B485B0F6
:103A800000AF786039607B6893F83C30012B01D13E
:103A9000022331E07B68012283F83C20194BFB6054
:103AA000FB685B6823F01F02FB685A60FB685A687A
:103AB0003B681B681A43FB685A60FB685B6823F429
:103AC0004042FB685A60FB685A683B685B681A436F
:103AD000FB685A60FB685B6823F47062FB685A609D
:103AE000FB685A683B689B681A43FB685A607B68AE
:103AF000002283F83C20002318461437BD4680BCC2
:103B0000704700BF0023014080B584B000AF7860EB
:103B10007B689B6BFB60FB681B6C03F05003002B06
:103B20003CD1FB681B6C43F40072FB681A64FB68B1
:103B30001B689B6803F04053002B2BD1FB681B7E56
:103B4000002B27D1FB681B68DB6A03F47003002B92
:103B500006D0FB681B689B6803F48063002B19D1B7
:103B6000FB681B685A68FB681B6822F020025A60D9
:103B7000FB681B6C23F48072FB681A64FB681B6C87
:103B800003F48053002B05D1FB681B6C43F001024A
:103B9000FB681A64F868FEF777FE04E0FB689B6B2D
:103BA000DB6C7868984700BF1037BD4680BD80B594
:103BB00084B000AF78607B689B6BFB60F868FEF7B1
:103BC0006CFE00BF1037BD4680BD80B584B000AF2D
:103BD00078607B689B6BFB60FB6840221A64FB6823
:103BE0005B6C43F00402FB685A64F868FEF767FEFA
:103BF00000BF1037BD4680BD80B485B000AF78608F
:103C00007B6803F00703FB600C4BDB68BB60BA68A2
:103C10004FF6FF031340BB60FB681A02BB681343F7
:103C200043F0BF6343F40033BB60044ABB68D36016
:103C300000BF1437BD4680BC704700BF00ED00E0F8
:103C400080B400AF044BDB681B0A03F0070318467F
:103C5000BD4680BC704700BF00ED00E080B483B07B
:103C600000AF0346FB7197F90730002B0BDBFB79A4
:103C700003F01F02064997F907305B09012000FA9B
:103C800002F241F8232000BF0C37BD4680BC7047CC
:103C900000E100E080B483B000AF0346FB7197F908
:103CA0000730002B12DBFB7903F01F020A4997F95A
:103CB00007305B09012000FA02F2203341F823208B
:103CC000BFF34F8F00BFBFF36F8F00BF00BF0C3734
:103CD000BD4680BC704700BF00E100E080B483B007
:103CE00000AF0346FB7197F90730002B0EDB0A4A41
:103CF00097F907305B09403352F82320FB7903F032
:103D00001F0322FA03F303F0010300E00023184627
:103D10000C37BD4680BC704700E100E080B483B042
:103D200000AF0346FB7197F90730002B0CDBFB79E2
:103D300003F01F02074997F907305B09012000FAD9
:103D400002F2403341F8232000BF0C37BD4680BC4F
:103D5000704700BF00E100E080B483B000AF0346CD
:103D6000FB7197F90730002B0CDBFB7903F01F0286
:103D7000074997F907305B09012000FA02F2603326
:103D800041F8232000BF0C37BD4680BC704700BF00
:103D900000E100E080B483B000AF0346FB7197F907
:103DA0000730002B0EDB0A4A97F907305B09803396
:103DB00052F82320FB7903F01F0322FA03F303F0E8
:103DC000010300E0002318460C37BD4680BC704755
:103DD00000E100E080B483B000AF03463960FB71BE
:103DE00097F90730002B0ADB3B68DAB20C4997F9E8
:103DF00007301201D2B20B4483F800230AE03B687B
:103E0000DAB20849FB7903F00F03043B1201D2B286
:103E10000B441A7600BF0C37BD4680BC704700BF0C
:103E200000E100E000ED00E080B483B000AF0346A5
:103E3000FB7197F90730002B09DB0C4A97F9073023
:103E4000134493F80033DBB21B09DBB209E0084AE4
:103E5000FB7903F00F03043B13441B7EDBB21B0909
:103E6000DBB218460C37BD4680BC704700E100E06D
:103E700000ED00E080B489B000AFF860B9607A600E
:103E8000FB6803F00703FB61FB69C3F10703042B25
:103E900028BF0423BB61FB690433062B02D9FB69ED
:103EA000033B00E000237B614FF0FF32BB6902FA65
:103EB00003F3DA43BB681A407B699A404FF0FF3145
:103EC0007B6901FA03F3D9437B680B40134318461F
:103ED0002437BD4680BC704780B489B000AFF8601D
:103EE000B9607A603B60BB6803F00703FB61FB6964
:103EF000C3F10703042B28BF0423BB61FB69043310
:103F0000062B02D9FB69033B00E000237B61FA68C2
:103F10007B69DA404FF0FF31BB6901FA03F3DB4301
:103F20001A407B681A604FF0FF327B6902FA03F394
:103F3000DA43FB681A403B681A6000BF2437BD466D
:103F400080BC704780B400AFBFF34F8F00BF064BFB
:103F5000DB6803F4E0620449044B1343CB60BFF316
:103F60004F8F00BF00BFFDE700ED00E00400FA0541
:103F700080B582B000AF78607B68013BB3F1807F91
:103F800001D301230FE00A4A7B68013B53600F21F4
:103F90004FF0FF30FFF71EFF054B00229A60044BE5
:103FA00007221A60002318460837BD4680BD00BFAF
:103FB00010E000E080B582B000AF78607868FFF76D
:103FC0001BFE00BF0837BD4680BD80B586B000AF80
:103FD0000346B9607A60FB7300237B61FFF730FE14
:103FE00078617A68B9687869FFF744FF024697F903
:103FF0000F3011461846FFF7EDFE00BF1837BD46DB
:1040000080BD80B582B000AF0346FB7197F90730E1
:104010001846FFF723FE00BF0837BD4680BD80B5B8
:1040200082B000AF0346FB7197F907301846FFF7DF
:1040300031FE00BF0837BD4680BD80B500AFFFF739
:1040400081FF80B582B000AF78607868FFF790FF9D
:10405000034618460837BD4680BD80B400AFBFF3A5
:104060005F8F00BF064B5B6A054A23F480335362BF
:10407000044B00225A6000BFBD4680BC704700BFA1
:1040800000ED00E090ED00E080B483B000AF786018
:104090000A4A7B6843F001035360094B5B6A084A94
:1040A00043F480335362BFF34F8F00BFBFF36F8F72
:1040B00000BF00BF0C37BD4680BC704790ED00E0EC
:1040C00000ED00E080B483B000AF78607B685A7880
:1040D0001D4B9A607B681B78002B29D01A4A7B689D
:1040E0005B68D3607B681B7B1A077B68DB7A1B06E7
:1040F0001A437B689B7ADB041A437B685B7B9B04D7
:104100001A437B689B7B5B041A437B68DB7B1B0445
:104110001A437B685B7A1B021A437B681B7A5B003D
:1041200013437A6812781146074A0B43136105E07E
:10413000054B0022DA60044B00221A6100BF0C37E5
:10414000BD4680BC704700BF90ED00E080B500AF79
:10415000FFF776FD0346184680BD80B584B000AFFA
:10416000B9607A603B600346FB7397F90F301846DD
:10417000FFF75AFE3B687A68B968FFF7ADFE00BFEB
:104180001037BD4680BD80B582B000AF0346FB71DD
:1041900097F907301846FFF7C1FD00BF0837BD4645
:1041A00080BD80B582B000AF0346FB7197F9073040
:1041B0001846FFF793FD034618460837BD4680BDF5
:1041C00080B582B000AF0346FB7197F907301846FF
:1041D000FFF7C2FD00BF0837BD4680BD80B582B085
:1041E00000AF0346FB7197F907301846FFF7D2FD81
:1041F000034618460837BD4680BD80B483B000AF83
:1042000078607B68042B06D1084B1B68074A43F093
:104210000403136005E0054B1B68044A23F0040304
:10422000136000BF0C37BD4680BC704710E000E053
:1042300080B500AF00F002F800BF80BD80B400AFD1
:1042400000BFBD4680BC704780B582B000AF7860CB
:104250007B68002B01D1012314E07B681B79DBB262
:10426000002B05D17B6800225A71786800F02BF88A
:104270007B6802221A717B6800221A617B68012226
:104280001A71002318460837BD4680BD80B582B03C
:1042900000AF78607B68002B01D101230FE07B68C1
:1042A00002221A71786800F017F87B6800221A6100
:1042B0007B6800221A717B6800225A71002318461D
:1042C0000837BD4680BD80B483B000AF786000BFC2
:1042D0000C37BD4680BC704780B483B000AF7860B7
:1042E00000BF0C37BD4680BC704780B483B000AFC0
:1042F000786039607B685B79012B01D1022340E053
:104300007B6801225A717B6802221A717B681B68E4
:1043100019683B6803F0100301229A407B681B6810
:104320000A431A603B68002B0FD17B681B681B682F
:1043300003F03C033C2B1DD17B681B685A687B68EB
:104340001B6842F001025A6014E07B681B681B681E
:1043500003F470123B6803F010033C2101FA03F3ED
:104360009A4207D17B681B685A687B681B6842F0D9
:1043700002025A607B6801221A717B6800225A711E
:10438000002318460C37BD4680BC704780B483B00C
:1043900000AF786039607B681B6819683B6803F080
:1043A0001003012202FA03F3DA437B681B680A4018
:1043B0001A607B6801221A71002318460C37BD462B
:1043C00080BC704780B586B000AFF860B9607A6095
:1043D0003B600023FB7500233B61FB685B79012B8D
:1043E00001D10223ABE0FB6801225A71FB68022273
:1043F0001A71BB68002B2FD1FB689B68524ADA63A5
:10440000FB689B68514A1A64FB689B68504ADA64EF
:10441000FB681B681A68FB681B6842F480521A60CC
:104420003B6A082B13D03B6A082B45D83B6A002B0C
:1044300003D03B6A042B05D03EE0FB681B680833C1
:104440003B613CE0FB681B680C333B6137E0FB6879
:104450001B6810333B6132E0FB68DB683D4ADA637E
:10446000FB68DB683C4A1A64FB68DB683B4ADA6439
:10447000FB681B681A68FB681B6842F080521A6070
:104480003B6A082B13D03B6A082B17D83B6A002BDA
:1044900003D03B6A042B05D010E0FB681B68143383
:1044A0003B610CE0FB681B6818333B6107E0FB686D
:1044B0001B681C333B6102E000BF00E000BFBB682B
:1044C000002B11D1FB681B681A68FB681B6842F45B
:1044D00000521A60FB68986879683B683A6900F096
:1044E00094FC0346FB7510E0FB681B681A68FB68C8
:1044F0001B6842F000521A60FB68D86879683B6814
:104500003A6900F082FC0346FB75FB6800225A7191
:10451000FB7D002B0CD1FB681B681968BB6803F09E
:10452000100301229A40FB681B680A431A6005E0E9
:10453000FB681B6943F00402FB681A61FB7D1846A7
:104540001837BD4680BD00BF3148000853480008F9
:104550006F4800080F4B0008314B00084D4B000816
:1045600080B582B000AF786039607B681B681968DD
:104570003B6803F010034FF4805202FA03F3DA436E
:104580007B681B680A401A607B681B6819683B6877
:1045900003F01003012202FA03F3DA437B681B687D
:1045A0000A401A603B68002B0DD17B689B68184657
:1045B00000F083FC7B681B681A687B681B6822F428
:1045C00000521A600CE07B68DB68184600F075FC4E
:1045D0007B681B681A687B681B6822F000521A60AF
:1045E0007B6801221A71002318460837BD4680BD3A
:1045F00080B582B000AF78607B681B681B6803F4ED
:104600000053B3F5005F20D17B681B685B6B03F43C
:104610000053B3F5005F18D17B6804221A717B68E0
:104620001B6943F001027B681A617B681B684FF4C9
:1046300000525A637B681B681A687B681B6822F407
:1046400080521A60786800F06CF87B681B681B6801
:1046500003F00053B3F1005F20D17B681B685B6BF4
:1046600003F00053B3F1005F18D17B6804221A7184
:104670007B681B6943F002027B681A617B681B68D8
:104680004FF000525A637B681B681A687B681B688E
:1046900022F080521A60786800F017FA00BF0837DD
:1046A000BD4680BD80B487B000AFF860B9607A6065
:1046B0003B6000237B61FB681B687B61BB68002B50
:1046C00005D17A697B68134408337B6104E07A6919
:1046D0007B68134414337B617B691A463B68136023
:1046E000002318461C37BD4680BC704780B483B099
:1046F00000AF786000BF0C37BD4680BC704780B407
:1047000083B000AF786000BF0C37BD4680BC7047F7
:1047100080B483B000AF786000BF0C37BD4680BC6A
:10472000704780B483B000AF786000BF0C37BD46DF
:1047300080BC704780B485B000AF786039600023DA
:10474000FB603B68002B04D17B681B68DB6AFB6065
:1047500003E07B681B681B6BFB60FB681846143723
:10476000BD4680BC704780B487B000AFF860B960C8
:104770007A60FB685B79012B01D102233CE0FB6886
:1047800001225A71FB6802221A71FB681B681B68C0
:104790007B617B6803F0100340F6FE7202FA03F3BC
:1047A000DB437A6913407B61BB681A68BB685B684E
:1047B00013433B617B6803F010033A6902FA03F389
:1047C0007A6913437B61FB681B687A691A60FB682E
:1047D0001B6819687B6803F01003C02202FA03F318
:1047E000DA43FB681B680A401A60FB6801221A71F1
:1047F000FB6800225A71002318461C37BD4680BC56
:10480000704780B483B000AF78607B681B79DBB2FF
:1048100018460C37BD4680BC704780B483B000AFEB
:1048200078607B681B6918460C37BD4680BC7047B2
:1048300080B584B000AF78607B689B6BFB60F868E4
:10484000FFF754FFFB6801221A7100BF1037BD4605
:1048500080BD80B584B000AF78607B689B6BFB60E7
:10486000F868FFF74CFF00BF1037BD4680BD80B52C
:1048700084B000AF78607B689B6BFB60FB681B6952
:1048800043F00402FB681A61F868FFF741FFFB6818
:1048900001221A7100BF1037BD4680BD80B485B0BB
:1048A00000AF78600023FB607B685B79012B01D14E
:1048B00002233BE07B6801225A717B6802221A7155
:1048C0007B681B681A687B681B6842F001021A60EB
:1048D0007B681B681A687B681B6842F480321A6028
:1048E0007B681B681B6803F03C033C2B03D1FB680F
:1048F00043F00103FB607B681B681B6803F47013C3
:10490000B3F5701F03D1FB6843F00203FB607B68C3
:104910001B6859687B681B68FA680A435A607B68A1
:1049200001221A717B6800225A710023184614373D
:10493000BD4680BC704780B483B000AF78607B68B0
:104940001B681A687B681B6822F001021A607B688A
:104950001B681A687B681B6822F480321A607B68C7
:1049600001221A71002318460C37BD4680BC7047DF
:1049700080B485B000AFF860B9607A60FB685B799D
:10498000012B01D1022324E0FB6801225A71FB684C
:1049900002221A71FB681B681A68BB6803F01003D7
:1049A0004FF47C6101FA03F3DB4302EA03017B6805
:1049B00043F08002BB6803F010039A40FB681B6859
:1049C0000A431A60FB6801221A71FB6800225A71BF
:1049D000002318461437BD4680BC704780B485B0AC
:1049E00000AFF860B9607A60FB685B79012B01D198
:1049F000022324E0FB6801225A71FB6802221A712B
:104A0000FB681B681A68BB6803F010034FF47C61F5
:104A100001FA03F3DB4302EA03017B6843F040023F
:104A2000BB6803F010039A40FB681B680A431A60D6
:104A3000FB6801221A71FB6800225A710023184694
:104A40001437BD4680BC704780B487B000AFF860B3
:104A5000B9607A603B60BB68082B05D13B681B02DC
:104A60007A6813437B6104E03B681B047A68134354
:104A70007B61FB681B683B61BA683B691344203368
:104A80003B613B697A691A60002318461C37BD46B2
:104A900080BC704780B483B000AF786000BF0C3733
:104AA000BD4680BC704780B483B000AF786000BF63
:104AB0000C37BD4680BC704780B483B000AF7860CF
:104AC00000BF0C37BD4680BC704780B483B000AFD8
:104AD000786000BF0C37BD4680BC704780B485B09D
:104AE00000AF78600023FB607B681B68DB6AFA68B4
:104AF0001343FB607B681B681B6B1B04FA68134342
:104B0000FB60FB6818461437BD4680BC704780B513
:104B100084B000AF78607B689B6BFB60F868FFF740
:104B2000B9FFFB6801221A7100BF1037BD4680BD76
:104B300080B584B000AF78607B689B6BFB60F868E1
:104B4000FFF7B1FF00BF1037BD4680BD80B584B010
:104B500000AF78607B689B6BFB60FB681B6943F070
:104B60000402FB681A61F868FFF7A6FFFB680122E0
:104B70001A7100BF1037BD4680BD000080B586B0F9
:104B800000AF786000237B61FCF7F4FE38617B683E
:104B9000002B01D1012399E07B68022283F83520A4
:104BA0007B68002283F834207B681B681A687B6866
:104BB0001B6822F001021A600FE0FCF7DBFE0246E0
:104BC0003B69D31A052B08D97B6820225A657B687C
:104BD000032283F83520032378E07B681B681B6879
:104BE00003F00103002BE8D17B681B681B687B6125
:104BF0007A69384B13407B617B685A687B689B6895
:104C00001A437B68DB681A437B681B691A437B681D
:104C10005B691A437B689B691A437B68DB691A43AB
:104C20007B681B6A13437A6913437B617B685B6A09
:104C3000042B07D17B68DA6A7B681B6B13437A69A4
:104C400013437B617B681B687A691A607B681B6809
:104C50005B697B617B6923F007037B617B685B6A2F
:104C60007A6913437B617B685B6A042B17D17B688D
:104C70009B6A7A6913437B617B68DB6A002B0ED0E9
:104C8000786800F047FD0346002B08D07B6840227F
:104C90005A657B68012283F83520012316E07B6882
:104CA0001B687A695A61786800F0FFFC0346FB6074
:104CB0007B68DB6D3F229A40FB689A607B6800222C
:104CC0005A657B68012283F835200023184618377F
:104CD000BD4680BD3F8010F080B584B000AF7860E5
:104CE0007B68002B01D1012350E07B6893F83530BD
:104CF000DBB2022B01D1022348E07B681B681A68F3
:104D00007B681B6822F001021A607B681B68002226
:104D10001A607B681B6800225A607B681B6800224F
:104D20009A607B681B680022DA607B681B6800223F
:104D30001A617B681B6821225A61786800F0B5FC13
:104D40000346FB607B680022DA637B6800221A64FA
:104D50007B6800225A647B6800229A647B68002288
:104D6000DA647B6800221A657B68DB6D3F229A401B
:104D7000FB689A607B6800225A657B68002283F892
:104D800035207B68002283F8342000231846103732
:104D9000BD4680BD80B586B000AFF860B9607A606E
:104DA0003B600023FB75FB6893F83430012B01D185
:104DB000022326E0FB68012283F83420FB6893F885
:104DC0003530DBB2012B15D1FB68022283F8352088
:104DD000FB6800225A653B687A68B968F86800F099
:104DE00037FCFB681B681A68FB681B6842F001020D
:104DF0001A6005E0FB68002283F834200223FB756B
:104E0000FB7D18461837BD4680BD80B586B000AF23
:104E1000F860B9607A603B600023FB75FB689B6DAE
:104E20003B61FB6893F83430012B01D1022340E051
:104E3000FB68012283F83420FB6893F83530DBB23D
:104E4000012B2FD1FB68022283F83520FB6800225A
:104E50005A653B687A68B968F86800F0F9FBFB6846
:104E6000DB6D3F229A403B699A60FB681B681A68B9
:104E7000FB681B6842F016021A60FB681B6C002B73
:104E800007D0FB681B681A68FB681B6842F00802C1
:104E90001A60FB681B681A68FB681B6842F0010215
:104EA0001A6005E0FB68002283F834200223FB75BA
:104EB000FB7D18461837BD4680BD80B584B000AF75
:104EC00078607B689B6DFB60FCF754FDB8607B6885
:104ED00093F83530DBB2022B08D07B6880225A650C
:104EE0007B68002283F83420012352E07B681B6832
:104EF0001A687B681B6822F016021A607B681B68C0
:104F00005A697B681B6822F080025A617B681B6CBF
:104F1000002B03D17B689B6C002B07D07B681B6840
:104F20001A687B681B6822F008021A607B681B689D
:104F30001A687B681B6822F001021A6013E0FCF714
:104F400019FD0246BB68D31A052B0CD97B682022B9
:104F50005A657B68032283F835207B68002283F83A
:104F60003420032315E07B681B681B6803F00103F2
:104F7000002BE4D17B68DB6D3F229A40FB689A608E
:104F80007B68012283F835207B68002283F8342077
:104F9000002318461037BD4680BD80B483B000AFF3
:104FA00078607B6893F83530DBB2022B04D07B68E5
:104FB00080225A6501230CE07B68052283F83520A6
:104FC0007B681B681A687B681B6822F001021A6004
:104FD000002318460C37BD4680BC704780B58AB0A8
:104FE00000AFF8600B467A60FB720023FB77FCF79A
:104FF000C1FCB861FB6893F83530DBB2022B08D0F6
:10500000FB6880225A65FB68002283F83420012364
:10501000BFE0FB681B681B6803F48073002B05D09E
:10502000FB684FF480725A650123B2E0FB7A002BD3
:1050300006D1FB68DB6D202202FA03F37B6205E0F8
:10504000FB68DB6D102202FA03F37B62FB689B6D49
:105050007B617B691B683B625AE07B68B3F1FF3F71
:1050600017D07B68002B07D0FCF784FC0246BB6995
:10507000D31A7A689A420CD2FB6820225A65FB68E0
:10508000012283F83520FB68002283F834200323B3
:105090007FE07B691B683B62FB68DB6D08229A40FE
:1050A0003B6A1340002B0BD0FB685B6D43F00102A1
:1050B000FB685A65FB68DB6D08229A407B699A6041
:1050C000FB68DB6D01229A403B6A1340002B0BD03A
:1050D000FB685B6D43F00202FB685A65FB68DB6DA1
:1050E00001229A407B699A60FB68DB6D04229A403A
:1050F0003B6A1340002B0BD0FB685B6D43F004024E
:10510000FB685A65FB68DB6D04229A407B699A60F4
:105110003A6A7B6A1340002B05D1FB685B6D03F094
:105120000103002B99D0FB685B6D002B18D0FB6846
:105130005B6D03F00103002B12D0F868FFF7BDFE92
:10514000FB68DB6D30229A407B699A60FB68012224
:1051500083F83520FB68002283F83420012318E00F
:10516000FB7A002B0ED1FB68DB6D30229A407B6905
:105170009A60FB68012283F83520FB68002283F8DF
:10518000342005E0FB68DB6D10229A407B699A6051
:10519000FB7F18462837BD4680BD80B586B000AF7E
:1051A00078600023BB608E4B1B688E4AA2FB0323F2
:1051B0009B0A7B617B689B6D3B613B691B68FB6065
:1051C0007B68DB6D08229A40FB681340002B1AD0E5
:1051D0007B681B681B6803F00403002B13D07B68FB
:1051E0001B681A687B681B6822F004021A607B68DF
:1051F000DB6D08229A403B699A607B685B6D43F0E7
:1052000001027B685A657B68DB6D01229A40FB686E
:105210001340002B12D07B681B685B6903F080038E
:10522000002B0BD07B68DB6D01229A403B699A60B2
:105230007B685B6D43F002027B685A657B68DB6DBF
:1052400004229A40FB681340002B12D07B681B6835
:105250001B6803F00203002B0BD07B68DB6D04227C
:105260009A403B699A607B685B6D43F004027B68FF
:105270005A657B68DB6D10229A40FB681340002B57
:1052800043D07B681B681B6803F00803002B3CD0ED
:105290007B68DB6D10229A403B699A607B681B68D3
:1052A0001B6803F48023002B18D07B681B681B68E5
:1052B00003F40023002B08D17B681B6C002B24D047
:1052C0007B681B6C786898471FE07B689B6C002BA1
:1052D0001BD07B689B6C7868984716E07B681B68DE
:1052E0001B6803F48073002B07D17B681B681A6866
:1052F0007B681B6822F008021A607B681B6C002B1D
:1053000003D07B681B6C786898477B68DB6D202234
:105310009A40FB681340002B00F08E807B681B686E
:105320001B6803F01003002B00F086807B68DB6DA8
:1053300020229A403B699A607B6893F83530DBB253
:10534000052B36D17B681B681A687B681B6822F0C6
:1053500016021A607B681B685A697B681B6822F01A
:1053600080025A617B681B6C002B03D17B689B6CAD
:10537000002B07D07B681B681A687B681B6822F0CB
:1053800008021A607B68DB6D3F229A403B699A6095
:105390007B68012283F835207B68002283F8342063
:1053A0007B681B6D002B7DD07B681B6D78689847F0
:1053B00078E07B681B681B6803F48023002B1CD0FB
:1053C0007B681B681B6803F40023002B0CD17B68EF
:1053D0005B6C002B30D07B685B6C786898472BE067
:1053E00010000020B5814E1B7B68DB6B002B23D0A7
:1053F0007B68DB6B786898471EE07B681B681B68DE
:1054000003F48073002B0FD17B681B681A687B68DC
:105410001B6822F010021A607B68012283F8352095
:105420007B68002283F834207B68DB6B002B03D081
:105430007B68DB6B786898477B685B6D002B32D0AC
:105440007B685B6D03F00103002B22D07B68052293
:1054500083F835207B681B681A687B681B6822F01C
:1054600001021A60BB680133BB607A699A4207D3B4
:105470007B681B681B6803F00103002BF2D100E07E
:1054800000BF7B68012283F835207B68002283F807
:1054900034207B68DB6C002B05D07B68DB6C786884
:1054A000984700E000BF1837BD4680BD80B487B084
:1054B00000AFF8600B467A60FB720023FB75FB6857
:1054C00093F83430012B01D102233CE0FB68012228
:1054D00083F83420FB6893F83530DBB2012B29D1F7
:1054E000FB7A052B29D801A252F823F005550008B4
:1054F0000D550008155500081D55000825550008D4
:105500002D550008FB687A68DA6317E0FB687A6853
:105510001A6413E0FB687A685A640FE0FB687A68E3
:105520009A640BE0FB687A68DA6407E0FB687A68E3
:105530001A6503E00123FB7500E000BFFB68002251
:1055400083F83420FB7D18461C37BD4680BC70476D
:1055500080B485B000AF78600B46FB700023FB730E
:105560007B6893F83430012B01D1022353E07B6830
:10557000012283F834207B6893F83530DBB2012BAD
:1055800042D1FB78062B3CD801A252F823F000BF91
:10559000AD550008B5550008BD550008C5550008B3
:1055A000CD550008D5550008DD5500087B68002260
:1055B000DA632BE07B6800221A6427E07B68002214
:1055C0005A6423E07B6800229A641FE07B68002213
:1055D000DA641BE07B6800221A6517E07B68002212
:1055E000DA637B6800221A647B6800225A647B6855
:1055F00000229A647B680022DA647B6800221A65C4
:1056000004E00123FB7301E00123FB737B680022AC
:1056100083F83420FB7B18461437BD4680BC7047A6
:1056200080B483B000AF78607B6893F83530DBB22C
:1056300018460C37BD4680BC704780B483B000AFBD
:1056400078607B685B6D18460C37BD4680BC704740
:1056500080B485B000AFF860B9607A603B60FB68E9
:105660001B681A68FB681B6822F480221A60FB68BA
:105670001B683A685A60FB689B68402B08D1FB683E
:105680001B687A689A60FB681B68BA68DA6007E092
:10569000FB681B68BA689A60FB681B687A68DA6006
:1056A00000BF1437BD4680BC704780B485B000AFE2
:1056B00078607B681B68DBB2103B144AA2FB0323B3
:1056C0001B09FB60124AFB6813441B781A467B686F
:1056D000DA65FB68032B09D97B681B6823F47F73A9
:1056E00023F003031A1D7B689A6507E07B681B683B
:1056F00023F47F7323F003037A6893657B689B6DC3
:1057000018461437BD4680BC704700BFABAAAAAA92
:10571000002A030880B485B000AF78600023FB73D3
:105720007B689B6ABB607B689B69002B1FD1BB6851
:10573000032B56D801A252F823F000BF4D570008A2
:105740005F5700084D570008E35700087B68DB6A85
:1057500003F08073002B46D00123FB7343E07B688A
:10576000DB6AB3F1C07F40D10123FB733DE07B686E
:105770009B69B3F5005F21D1BB68032B37D801A229
:1057800052F823F0955700089B57000895570008DA
:10579000AD5700080123FB7330E07B68DB6A03F040
:1057A0008073002B25D00123FB7322E07B68DB6A2A
:1057B000B3F1C07F1FD10123FB731CE0BB68022B38
:1057C00003D9BB68032B03D018E00123FB7315E05A
:1057D0007B68DB6A03F08073002B0ED00123FB7320
:1057E0000BE000BF0AE000BF08E000BF06E000BF1A
:1057F00004E000BF02E000BF00E000BFFB7B1846F2
:105800001437BD4680BC704780B586B000AFF860E5
:10581000B9607A603B600023FB75FB689B68802B56
:1058200006D1FB684FF480725A650123FB7531E0A5
:10583000FB6893F83430012B01D102232BE0FB6885
:10584000012283F83420FB6893F83530DBB2012B5A
:105850001ED1FB68022283F83520FB681B681A689A
:10586000FB681B6842F480221A60FB681B683A6878
:105870001A613B6A7A68B968F86801F070F9FB68E8
:105880001B681A68FB681B6842F001021A6001E09D
:105890000223FB75FB7D18461837BD4680BD80B5D9
:1058A00086B000AFF860B9607A603B600023FB759A
:1058B000FB689B68802B06D1FB684FF480725A65A9
:1058C000012301F010B9FB68DB6B002B07D0FB68EC
:1058D0005B6C002B03D0FB68DB6C002B05D1FB68F5
:1058E00040225A65012301F0FEB8FB6893F834307A
:1058F000012B02D1022301F0F6B8FB68012283F8E4
:105900003420FB6893F83530DBB2012B41F0E480A2
:10591000FB68022283F83520FB6800225A65FB6889
:105920001B681A68FB681B6842F480221A60FB68D7
:105930001B683A681A613B6A7A68B968F86801F0CE
:105940000EF9FB681B681A468C4B9A4260D9FB68BB
:105950001B688B4A934257D0FB681B68894A934265
:1059600050D0FB681B68884A934249D0FB681B688B
:10597000864A934242D0FB681B68854A93423AD0DC
:10598000FB681B68834A934232D0FB681B68824ADB
:1059900093422AD0FB681B68804A934222D0FB685E
:1059A0001B687F4A93421AD0FB681B687D4A93426A
:1059B00012D0FB681B687C4A93420AD0FB681B68C4
:1059C0007A4A934202D14FF400131EE04FF0006375
:1059D0001BE04FF4001318E04FF4001315E04FF4F0
:1059E000001312E04FF400630FE04FF400630CE08B
:1059F0004FF4006309E04FF4006306E0202304E065
:105A0000202302E0202300E02023694AD3604EE1F6
:105A1000FB681B681A46674B9A4260D9FB681B6893
:105A2000574A934257D0FB681B68564A934250D05E
:105A3000FB681B68544A934249D0FB681B68534A71
:105A4000934242D0FB681B68514A93423AD0FB68AC
:105A50001B68504A934232D0FB681B684E4A9342FF
:105A60002AD0FB681B684D4A934222D0FB681B6812
:105A70004B4A93421AD0FB681B684A4A934212D0A1
:105A8000FB681B68484A93420AD0FB681B68474A78
:105A9000934202D14FF400131EE04FF000631BE06D
:105AA0004FF4001318E04FF4001315E04FF4001307
:105AB00012E04FF400630FE04FF400630CE04FF48A
:105AC000006309E04FF4006306E0202304E0202394
:105AD00002E0202300E02023354A9360E7E0FB68E2
:105AE0001B681A46344B9A4240F28180FB681B685F
